:020000040000FA
:1000000028020020C1000000751300002911000023
:10001000FFFFFFFFFFFFFFFFFFFFFFFFFFFFFFFFF0
:10002000FFFFFFFFFFFFFFFFFFFFFFFF691700005C
:10003000FFFFFFFFFFFFFFFFB91500006B17000078
:1000400035010000350100003501000035010000D8
:1000500035010000350100003501000035010000C8
:1000600035010000350100003501000035010000B8
:1000700035010000350100003501000035010000A8
:100080003501000035010000350100003501000098
:100090003501000035010000350100003501000088
:1000A0003501000035010000350100003501000078
:1000B0003501000035010000350100003501000068
:1000C0001D4880471D4880471D4800471D4801695D
:1000D000002908D14169002905D18169002902D18F
:1000E000C169002909D01848C1680901090D002912
:1000F0000ED005290CD006290AD0BFF34F8F134824
:100100001349016013491248C860BFF34F8FFEE7DF
:100110000E4801680E48884200D070470E480F49CB
:1001200001600A480E4901607047FEE7FEE7FEE7FE
:10013000FEE7FEE7FEE70000CD0000006D170000BF
:100140006501000000030840800108400000002015
:100150000400FA0500ED00E0008108400100000005
:10016000000000000348854600F0FEFA0048004702
:10017000F51B000028020020024670B54A40D30F4C
:10018000DB0740002DD04A002AD0010E140E0002D9
:1001900012020919400A520A8418E5010446544320
:1001A000000A120A2E045043A4194219200CC54318
:1001B000AA18120C0125AD03521C521912047F39E2
:1001C000240400D0521C104301D44000491EC2B286
:1001D0000C06C0092018401C4008802A02D003E009
:1001E000002070BD40084000002900DA00201843BC
:1001F00070BD70B502464A40D50F40004A00ED0779
:1002000040085208002814D0002A12D0C40DD30D83
:1002100041020120C0055202490A520AE41A091893
:1002200012187D34914201D3641C00E04900002C77
:1002300001DA002070BD0023914201D3891A0343E3
:10024000400849000028F7D100290AD0914202D184
:100250000121C90705E0914201D2012101E00121FC
:10026000C943E005C018401900F076F870BDC21708
:10027000C10F504010B54018CA079623002100F066
:1002800073F810BD10B500229623114600F06CF8EB
:1002900010BDC20FD207400040080BD0C10D07238C
:1002A000DB01C91840020905400A1143C208400792
:1002B0001143704700200146704770B5044600297D
:1002C00003D000202022012310E0002801D00020CC
:1002D000C043C046C0460DE02546D5408D4205D3FB
:1002E0000D469540641B1D46954040191546521E0B
:1002F000002DF1DC214670BDF0B51FB4064600208C
:1003000082B005464024019100901BE001992246ED
:100310000F46304600F050FA049A059B801A994126
:1003200010D310461946224600F036FA361A8F418D
:100330000197224601200021009F00F02DFA381875
:100340004D4100902046641E0028DFDC019B009890
:100350002946324607B0F0BD002904DA401C4900A6
:1003600001D140084000704770B40024050C05D14D
:100370001024000402D1002921D01124050E01D13E
:1003800000020834050F01D10001241D850F01D1A1
:100390008000A41C002801DB4000641C002908D058
:1003A00020252E1B0D46F540A14000D001212943F8
:1003B000084301061B1B000ADB1D02D5002070BC90
:1003C0007047DB05181880180029F8DA401C49002E
:1003D000F5D170BC4008400070470000F0B50746FA
:1003E0000846584087B0C00F049048000E46590098
:1003F00040084908BC1A884105D2384631461E4695
:1004000017460B4602465800400810434CD0300DAA
:10041000039040055900400D490D0590401A029087
:10042000402872DA18030121000B090508430190E6
:1004300004980092002805D001995242002088417A
:1004400000920190029840210A1A0199009800F048
:10045000A3F905460C466B4607CB00F0BEF9C01960
:100460007141039A0E0D0023D71756401A467A4061
:10047000164344D0049A002A2DD0029A012A039AE6
:1004800015DC1205C01A914101263605001C714188
:10049000D20F059ED2070093019202962A46234668
:1004A00000F0BBF907B0F0BD38463146FAE7160553
:1004B000224A0F46B218C01AB74101210905001C93
:1004C0004F4100187F41114618187941E20F10433F
:1004D0006D19644113E0E2076D0815436408C20713
:1004E0001443039A01261205C01A91413605001CD7
:1004F0007141CE07400830434908C01851412A468F
:10050000234600F07DF9CDE7FFE704980122400083
:10051000C117121A00238B4104983146C417381AA8
:10052000A141EEE730B40124E407634030BC55E755
:1005300030B40124E407614030BC4FE70000E0FF25
:10054000F0B51FB488B00B99099800244840099968
:10055000C00F490049080991C0070B990090490054
:1005600049080B9109990898A64608431CD00B9995
:100570000A98084318D0099801244000420D480009
:10058000410D099824050003000B204309900B98A6
:100590000003000B20430B9050181C494018002208
:1005A00001901446104605E0002001460DB0F0BD54
:1005B000032801DA034600E003239C46C11A0AAE71
:1005C0000AE05F0008ADED5B4F00F75B7D4300275D
:1005D000AA187C41491C5B1E6145F2DD410004AB59
:1005E0005A522104120C0A43240C401C0828DFDB59
:1005F000019802900099704601910090059B049A21
:100600000799069800F009F9D0E700000DFCFFFFFC
:10061000F0B50C465C4085B0E40FE40703944C0051
:10062000002664085900944649080246029622436F
:1006300021D062460A431ED06200570D4A000E03C5
:100640002303550D012402462C492405781B1B0B5E
:10065000360B401823432643614600901C46501A2F
:10066000B44103D30098401C009002E09218009817
:100670005B41002803DA0020014605B0F0BD0020F0
:10068000012109050746864611E064461D46141BF4
:10069000B54106D36546521BB341744607430C432C
:1006A000A646CD0740084908284392185B410546F5
:1006B0000D43EAD11046184313D060461946504006
:1006C0007140084306D06046101AB34106D2012299
:1006D000002306E000220123DB0702E00122D243CF
:1006E0005310009874460105381C6141029C039D1B
:1006F0000019694100F084F8BFE70000FD03000025
:100700004A0009030123090B1B0519430A4B10B5C5
:10071000520D9A4202DA0020014610BD064B3433D6
:100720009A4203DC9A1A00F047F810BD034BD21826
:1007300000F032F810BD0000FF030000CDFBFFFF0A
:1007400010B5002904DB0124E40740428C41214616
:10075000002B04DB1C460123DB075242A3419942D4
:1007600000D1904210BD00001CB509480090094816
:10077000019005460126009C05E0E36807CC334361
:100780000C3C98471034AC42F7D3FFF7EFFC000065
:10079000EC2A00000C2B000010B5202A04DB0146D7
:1007A000203A9140002010BD914020239C1A03461E
:1007B000E3401943904010BD10B5202A04DB0846E1
:1007C000203AD040002110BD0B46D340D040202419
:1007D000A21A91400843194610BD10B5202A06DB25
:1007E000CB170846203A1041C1170B4306E00B46D1
:1007F0001341D0402024A21A91400843194610BD4D
:1008000010B5002B08DA0024401C614192185B41AE
:100810001A4301D14008400010BDF0B51FB482B0AA
:1008200005460C0003D0084601F0F8FA02E001F09A
:10083000F5FA20300246009021462846FFF7ACFF2B
:10084000049B059A04460F4618431143084314D0ED
:10085000184610431BD0009840210A1A18460599E3
:10086000FFF7AAFF05460E46009A05990498FFF780
:1008700093FF084305D0012004E02046394607B025
:10088000F0BD0020C11705430E432C4337430099A8
:100890000E986305401A7905E40A00220C43FD0A0C
:1008A0000A3002D500200146E9E701051019694127
:1008B0000C9C0D9D00196941FFF7A2FFDFE782B094
:1008C00001900091009801998C22885002B07047E5
:1008D00080B582B00190684601700078002809D088
:1008E000FFE701990868802210430860019800F032
:1008F00091F805E001990868802290430860FFE7BD
:1009000002B080BD83B0009101460098029101A918
:1009100008700298097889004018006B80B203B013
:10092000704783B002900191029884214058019948
:10093000084204D0FFE769460120087003E06946D9
:1009400000200870FFE76846007803B0704710B5D4
:1009500086B000920A460099059004A8027003AA86
:10096000117005991478FC231C40091949680291FB
:1009700011788907CC0E1F21A1400191019C029999
:10098000A1430291007811788907C90E884001902F
:1009900001990298084302900298059912781A402A
:1009A0008918486006B010BD10B584B0039002A845
:1009B000017001A90A7069460B700078032801D103
:1009C000FFE7FFE76846007800040A49401801A9DC
:1009D00009780902FF22D2438918084302A909783D
:1009E0004018039909688022114008430399086060
:1009F00004B010BD0000FFFF82B00190009100988C
:100A00001F210840019A10670098884301994867A0
:100A100002B0704781B000900099086840221043EE
:100A20000860FFE7009800684006002801D5FFE74E
:100A3000F8E701B0704782B0019068460170007815
:100A4000002806D0FFE70199486F0122104348674C
:100A500005E00199486F012290434867FFE702B023
:100A60007047000080B588B007A98320087006A9E8
:100A7000087005A80022027004A8027003A8028072
:100A80007148482100F056FCFFE76F486F4900F0BD
:100A90006BFB002801D1FFE7F7E7FFE76A486C49E5
:100AA00000F062FB002801D1FFE7F7E7664801216B
:100AB00000F037FCFFE71D204104634800F054FBC1
:100AC000002801D1FFE7F6E707A801785E4800F0AB
:100AD00028FCFFE71D2041045B4800F045FB00288F
:100AE00001D1FFE7F6E706A80178574800F019FCA6
:100AF000FFE71D204104544800F036FB002801D1D7
:100B0000FFE7F6E7504800F05AFBFFE74E480C219C
:100B100000F0F0FB0003002801D5FFE7F6E70A200C
:100B200000F022FA48484821002200F003FCFFE7C9
:100B30004548464900F018FB002801D1FFE7F7E7D8
:100B4000FFE74148424900F00FFB002801D1FFE7D1
:100B5000F7E73D48002100F0E4FBFFE71D204104DA
:100B6000394800F001FB002801D1FFE7F6E73648DD
:100B700000F025FBFFE734480C2100F0BBFB00032D
:100B8000002801D5FFE7F6E7012082022E48482120
:100B900000F0D0FBFFE72C482C4900F0E5FA0028D4
:100BA00001D1FFE7F7E7FFE727482A4900F0DCFA21
:100BB000002801D1FFE7F7E72348012100F0BEFA42
:100BC000FFE719200104204800F0CEFA002801D1E7
:100BD000FFE7F6E71C48029000F09CFB01460298F4
:100BE00005AA1170002100F0A9FAFFE719200104FD
:100BF000154800F0B9FA002801D1FFE7F6E71248DE
:100C0000019000F087FB0146019804AA117000F0E2
:100C1000D6FAFFE70C480C2100F06CFB000300281B
:100C200001D5FFE7F6E70598000204A90978411805
:100C300003A801800021405EFFF719FB0649FFF77A
:100C40009BFA08B080BDC046009004400100180027
:100C500004003A00040018006F12033988B00790AE
:100C6000069105A802700798C00027494018049013
:100C700000200390029001900090FFE70098082860
:100C800040DCFFE700200290019006980099C840E0
:100C9000000600282ED0FFE700200390FFE703980E
:100CA00007281ED8FFE706980399C8400099C84056
:100CB000C007002810D0FFE7039880000F21814073
:100CC00002980843029005A80178039880008140AB
:100CD000019808430190FFE7FFE70398401C039049
:100CE000DDE7049800680299884301990843049954
:100CF0000860FFE70498001D0490FFE700980830A3
:100D00000090BBE708B070472020024080B586B055
:100D100005902948006807210840039000F050F82A
:100D2000059908600398401E0290062828D802986A
:100D3000810001A040588746550D00005D0D000060
:100D4000650D0000810D0000810D00006D0D00009B
:100D5000770D000005990868486015E0059940483E
:100D6000486011E005993E4848600DE00599012072
:100D7000C003486008E005997D200002486003E058
:100D8000059900204860FFE70C480068049004982B
:100D9000052805D3FFE7059840684009019005E064
:100DA000059840680499C8400190FFE701980599AB
:100DB000886006B080BDC04634800840208008406E
:100DC00088B02448006801210A021040000A0390FC
:100DD00021480068C00F029020480068490208407E
:100DE000400A01900198002803D1FFE700200790F6
:100DF0002DE01B4804901B480068C000C00F009005
:100E000004980099C84004900298012803D1FFE794
:100E1000049807901BE0134800681F21C90508408B
:100E2000C00D05900598002803D1FFE7102005901C
:100E3000FFE70C480068032149050840400D069073
:100E40000499059848430699C8400790FFE707981A
:100E500008B07047008008401C80084004800840AB
:100E600000127A001880084080B586B0014605A8B7
:100E70000170002101910599C9081C221140104AF6
:100E80008918009100782E2803D1FFE702200190F5
:100E9000FFE705A801781F22114001700099096839
:100EA0000078032282401140C1400198401801900F
:100EB00002A8FFF72BFF04980199C84006B080BD37
:100EC0003880084010B587B006920591049003A8B9
:100ED0000370184909680291174909680191174977
:100EE00009680091049A029991430291059A019927
:100EF00091430191069A009991430091007800284E
:100F00000DD0FFE7049902980843029005990198D3
:100F1000084301900699009808430090FFE7029863
:100F20000449086001980449086000980349086072
:100F300007B010BD248008402C8008403080084055
:100F400010B582B001AB18706A4611700549086887
:100F50001B7807249C40A04312789A4010430860F5
:100F600002B010BD2880084082B00190FFE70198D0
:100F7000411E019100280ED0FFE700200090FFE7FE
:100F800000980649884205D8FFE7FFE70098401C13
:100F90000090F5E7EBE702B07047C046DF2E000097
:100FA00083B0029001A80180684602700078002892
:100FB00007D0FFE701A8028802990868104308607B
:100FC00006E001A802880299086890430860FFE7DC
:100FD00003B0704783B0029001A801806846027098
:100FE0000078002807D0FFE701A802880299486826
:100FF0001043486006E001A80288029948689043BF
:101000004860FFE703B0704787B000910146009841
:10101000069105A9088004A80270069A92680392B6
:10102000069AD26802920B88039A9A4303920A881E
:1010300002999143029100780190002808D0FFE7BF
:10104000019801280AD0FFE7019802280CD00CE093
:1010500005A8018803980843039007E005A80188C4
:1010600002980843029001E000E0FFE70398069928
:10107000886002980699C86007B0704783B00290F4
:1010800001A80180684602700078002805D0FFE7BB
:1010900001A800880299486204E001A8008802992A
:1010A0008862FFE703B0704780B588B0024607A8A2
:1010B00002700691007801011A484018059000203E
:1010C000009004900390029002A9487901230193B3
:1010D000184348714879402210434871049A039993
:1010E0000298FFF7EFFE059A1079D188127AFFF780
:1010F000B5FD059A907A9189927BFFF7AFFD05982F
:101100000068069900F0E8FC0099019A05980068CB
:1011100000F04CFD019A05980068114600F046FD6C
:1011200008B080BD182A0000FFE7034800680028C7
:1011300001D1FFE7F9E770470800002082B0019075
:10114000684601700078002806D0FFE7019908681A
:1011500001221043086005E00199086801229043CC
:101160000860FFE702B0704783B0019000910198DA
:10117000C0680099884204D1FFE702A901200870E5
:1011800003E002A900200870FFE702A8007803B07E
:10119000704782B00190684601700078002806D040
:1011A000FFE70199086808221043086005E00199EB
:1011B0000868082290430860FFE702B0704781B0DA
:1011C00000900099086802221043086001B070473F
:1011D00080B58CB00A900991002008900790069085
:1011E000059004A908700A98006885218843099928
:1011F0000A7810434A781043897808430A990860AE
:10120000099800890A9988600A983849884204D167
:10121000FFE704A90020087009E00A9834498842D1
:1012200004D1FFE704A902200870FFE7FFE704A844
:101230000078FFF719FE08900A98006803218903D7
:101240000840039000280CD0FFE703980121890390
:10125000884209D0FFE703980121C903884206D0DC
:1012600008E00620079005E00820079002E009202A
:101270000790FFE7089909204843099900914A68B7
:10128000142101915143FFF718F8009A0199079B27
:10129000C01AD278801A0690089A0B205043099AF7
:1012A000029252685143FFF708F80299079A801A90
:1012B000C978401A05900698002804D4FFE70598DD
:1012C000002804D5FFE70BA90020087009E0069864
:1012D0000A99086105980A9948610BA901200870CC
:1012E000FFE70BA800780CB080BDC046008004402A
:1012F0000090044083B0029001A801700021009189
:1013000002990091017800984018009000980068B8
:1013100003B0704781B0009000988069C0B201B0FE
:10132000704782B001906846017000780199886129
:1013300002B0704783B0029001A801800092FFE7DD
:10134000029800688007002801D5FFE7F8E70098B9
:10135000002808D0FFE701A800880121890208437E
:101360000299C86104E001A800880299C861FFE7FA
:1013700003B07047704780B5002000F063F880BD6F
:1013800080B584B003AB187002A8017001A8027088
:101390000078202805DBFFE701A800787F2804DB20
:1013A000FFE701A920200870FFE703A8007802A941
:1013B000097800F0BFF8694600200870FFE768462A
:1013C0000078072813DCFFE701A80078C00009496E
:1013D0004018694609784018FF21C943405C00F075
:1013E000D9F8FFE70098401C69460870E7E704B0A9
:1013F00080BDC0461E27000080B584B003AB1870C6
:1014000002A801700192FFE701980078002817D028
:10141000FFE702A800780830812801DBFFE70FE032
:1014200003A8007802A900910978019A531C01933E
:101430001278FFF7A5FF0099029808300870E3E7DB
:1014400004B080BD80B584B003A90870212000F0ED
:101450008FF80020019000F08BF87F2000F088F8D2
:10146000222000F085F8019800F082F8072000F0B3
:101470007FF8019802A90880FFE702A800880849C0
:1014800088420ADCFFE703A8007800F083F8FFE752
:101490000298401C02A90880EFE704B080BDC04656
:1014A000FF03000080B586B00122039291030291F0
:1014B00040480190FFF7E2FD0398FFF755FD0198C2
:1014C000029900220592FFF7D9FD0398FFF74CFD22
:1014D00001980299039AFFF7D1FD0398FFF744FDA5
:1014E000AE2000F045F8202000F042F8059800F00A
:1014F0003FF8812000F03CF87F20049000F038F89D
:10150000A62000F035F8AF2000F032F8212000F0DE
:101510002FF8059800F02CF8049800F029F8222004
:1015200000F026F8059800F023F8072000F020F8D6
:1015300006B080BD80B584B003AA0192107002A8E5
:1015400000900170212000F013F80098007800F05E
:101550000FF87F2000F00CF8222000F009F8019825
:10156000007800F005F8072000F002F804B080BD14
:1015700080B582B001A9009108700120C1030D4817
:101580000022FFF77BFD0098007800F0A7F802B07A
:1015900080BDC04680B582B001A9009108700122CB
:1015A000D1030448FFF76AFD0098007800F096F830
:1015B00002B080BD00000B40704780B584B0E120D0
:1015C0004002009001200002694688800020C88007
:1015D00008810390FFF768FD04B080BD81B00090E2
:1015E00068460078012189070860FFE70448006821
:1015F000C005002801D4FFE7F8E7009801B0704764
:101600001000004082B00190684601700078002808
:1016100006D0FFE70199086801221043086005E041
:1016200001990868012290430860FFE702B0704703
:1016300084B00390029101A90020087000900398E3
:101640004069009000980299084204D0FFE701A980
:101650000120087003E001A900200870FFE701A83D
:10166000007804B0704783B00290019101984069FE
:1016700000900098002809D1FFE7019880690121B6
:101680000902814000980843009008E001988069B1
:1016900001214902C140009808430090FFE70199E9
:1016A00008688A681043CA6810430A691043C96908
:1016B00008430099084302994860019948684A6ABA
:1016C0001043096A09010843029988610198806AF8
:1016D0004008401E0299C86003B0704780B582B0D0
:1016E00001A90870FFE7F8480121FFF7A1FF0028D2
:1016F00001D1FFE7F7E701A80178F34800F02BF8E4
:10170000FFE7F1480421FFF793FF002801D1FFE72D
:10171000F7E7ED4800F002F802B080BD81B000901C
:101720000098006980B201B0704782B001906846AD
:1017300001700078002806D0FFE7019908680822A8
:101740001043086005E0019908680822904308608A
:10175000FFE702B0704782B00190684601800088C0
:101760000199086102B0704770477047B0B55149A0
:101770001020086050490868402210430860FFE7C5
:101780004E480068272801D0FFE7F9E74C49086870
:1017900003229202904308604A4908680122D2025B
:1017A00010430860FFE7484800680007C00F0028A2
:1017B00001D1FFE7F7E743490868032210430422F9
:1017C00090430860FFE7414800680721084003286C
:1017D00001D0FFE7F7E73E490868012210430623DE
:1017E000984308603B490020086036490868540265
:1017F000A0430860384B1868150228431860086831
:101800000825A843086018682043186008689202F9
:1018100010430860FFE72C4800684007C00F00280D
:1018200001D1FFE7F7E724490868402290430860A8
:101830000F20C005294908600868012213071843D2
:101840000860254908681302984308601D49086824
:10185000520210430860FFE71B4800688007C00F72
:10186000002801D1FFE7F7E7194908680322104370
:101870000422904308601749002008601149086855
:1018800001221043062290430860FFE70F480068DA
:1018900007210840012801D0FFE7F7E70C49086855
:1018A00010221043086008680122120310430860E8
:1018B000B0BDC0460C8108403080084008A10640F9
:1018C0002480084004800840088008403480084094
:1018D000000208402080084000800840188008402E
:1018E00080B5A4B00020109023902290219021A9CF
:1018F0008878012312931843887088780422104353
:101900008870887808220E921043887048794022A7
:10191000104348712298202208921043087122989F
:1019200002220F9210430871C87A1843C872239A92
:1019300022992198FFF7C6FA0F981299C902052239
:101940000192FFF78BF9019A0F9812990902FFF79C
:1019500085F9019A0F98129949020291FFF77EF9D1
:10196000019A0F9812998902FFF778F90299109A53
:1019700053480790FFF748FB1098129AD103039140
:10198000FFF76CF91098129A91030491FFF766F92A
:101990000399129A4B480A90FFF702FB04990A98A0
:1019A000129AFFF7FDFA03990A98129AFFF766FB5D
:1019B00004990A98129AFFF761FB049B0E981099FC
:1019C000129A169317911890520319921A911B911B
:1019D0001C911D911E911F9120903B48059016A9C6
:1019E000FFF741FE05981299FFF79FFE059812999F
:1019F000FFF708FE0F9810210C9107220692FFF7BF
:101A00002DF9069A08990F98FFF728F907980C996D
:101A1000109AFFF7F9FA07980899109AFFF7F4FA65
:101A2000109813A90870487088700A220A81274A02
:101A30001492C87026480990FFF7CAFB12990998BA
:101A4000FFF7A7FB0F9A10980C210B91FFF706F9EF
:101A50000C990F9A03200D90FFF700F90A980B9943
:101A6000109AFFF7B7FA0C99109A1A48FFF7B2FAD2
:101A70000C980621FFF764FA0D9A109BCB48119041
:101A80001946FEF791FF0F99109B11981A46FEF721
:101A90005EFF0D99109B1198129AFEF758FF0E9950
:101AA0000F9A109B1198FEF752FF11981299FEF7AA
:101AB000A3FF11981299FEF70BFF24B080BDC0461A
:101AC00000400B4000000B4000400440A086010095
:101AD0000090044000600B4080B586B005900491F2
:101AE0000020039005980290059840682949084015
:101AF0000499CA8810438A8810430A891043C96828
:101B0000084305994860029801900121890788429D
:101B100019D0FFE70198204988421ED0FFE70198BD
:101B20001E49884223D0FFE701981D4988420FD003
:101B3000FFE701981B49884214D0FFE701981A4932
:101B4000884219D01DE01820FFF78EF9039018E0A5
:101B50001A20FFF789F9039013E01C20FFF784F99E
:101B600003900EE01E20FFF77FF9039009E00820A4
:101B7000FFF77AF9039004E00A20FFF775F9039064
:101B8000FFE7039804990968FEF797FB05994862F7
:101B900006B080BDFCE0FFFF0010004000200040C8
:101BA00000000440001004400020044083B0029074
:101BB0000191684602700078002808D0FFE701987C
:101BC00010228240029948681043486007E001985B
:101BD000102282400299486890434860FFE703B0B2
:101BE000704780B582B0019000910198FFF7F6FC34
:101BF00002B080BDF0B59DB0002012901C90FFF7A0
:101C00006FFEFFF7DAFC674800F0E4F8FFF74AFCE4
:101C1000FFF7B1FB1299644A0846FFF7EDFB7D2000
:101C2000C000FFF7A1F9FFF7A6FBFFE75F4801211E
:101C3000FEF701FFFFE75D480421FEF772FE002872
:101C400001D1FFE7F7E7594806900521FEF737FE77
:101C5000069800211091FEF755FE01460698544A59
:101C6000079211600121FEF74DFE079A0146069882
:101C7000516002210E91FEF745FE014607988160F2
:101C80000068FEF7FFFA4B490891FEF775FA4A49DA
:101C90000991FEF7AEFA01460798484A0F92116083
:101CA0004068FEF7EFFA0899FEF766FA0999FEF721
:101CB000A0FA0F9A0146079851608068FEF7E2FA91
:101CC0000899FEF759FA0999FEF793FA0F99886077
:101CD000FEF7C8FE13901398FEF7DBFA02460F9842
:101CE0000A920B910068FEF7D4FA02460F980C9204
:101CF0000D918068FEF7CDFA04460F980D464068B6
:101D0000FEF7C7FA0A9A0B9B06460C980F460D99E8
:101D1000059704960395029401910090284800F0DD
:101D200059F81398FEF7B5FA02460B46254914A850
:101D3000119000F05FF81099119A0846FFF75CFBCC
:101D40000F980068FEF7A5FA024611980B461E4947
:101D500000F050F81099119A0E98FFF74DFB0F986C
:101D60004068FEF796FA024611980B46174900F0B4
:101D700041F81099119A0420FFF73EFB0F988068F4
:101D8000FEF787FA024611980B46114900F032F827
:101D90001099119A0620FFF72FFB7D208000FFF796
:101DA000E3F843E7282A00009D2A000000000140D4
:101DB0000C0000203333534000F07F451800002012
:101DC000542A0000DC2A0000CD2A0000BE2A0000B0
:101DD000B12A00000FB410B503A9044B044A0298BD
:101DE00000F0FCF810BC08BC04B01847E31B00006E
:101DF000000000200FB410B504A9074B02AA0398F5
:101E000000F0ECF8044602A9002000F083FC204614
:101E100010BC08BC04B01847152700002021020C94
:101E200001D010211046020A01D0104608390209DB
:101E300001D01046091F820801D01046891E4208B1
:101E400001D0881E7047081A704702E008C8121FA8
:101E500008C1002AFAD170477047002001E001C193
:101E6000121F002AFBD17047F0B51FB486B0099845
:101E7000089A030D0021024314D05148514A181802
:101E8000504305141198012810981AD0281A401CA4
:101E900000264D4F4D49009601910490002812DA1A
:101EA000444211E01198012449A3012801D110985E
:101EB000C1430698119A84600360C26041600BB010
:101EC000F0BD4042E4E70446210500203F4A001CE3
:101ED00051410391029012E0E00707D032463B46A1
:101EE00001990098FEF72CFB0191009032463B4689
:101EF00010461946FEF724FB06460F466410002CD8
:101F0000EAD10498039B0028029A0999089806DAF6
:101F1000FEF716FB019B009AFEF712FB05E0FEF7A9
:101F200077FB019B009AFEF773FB04460E460022E6
:101F3000284BFEF705FC03D80020C043014607E00C
:101F40000022254B20463146FEF748FAFEF7D8FB23
:101F5000102409E0002C0ADB0A220023FEF7CCF94A
:101F6000079B30321A55641E02460A43F2D11122F1
:101F7000641C079B121B1C19119B012B03D001230E
:101F800008430ED10AE0084304D01120109000202D
:101F9000119077E71098151A6D1E0BE01098824289
:101FA00002DD00236D1C03E0824201DA00236D1E76
:101FB000002BEED0069811998260C16030C07EE798
:101FC00001FCFFFF104D0000000014400000F03F36
:101FD000300000000000F0430000E03FFFB597B084
:101FE0000646002518E2252877D100242746FD491A
:101FF000049400E00443761C32780120203A90409B
:102000000842F7D130782A280ED0022230780146D3
:102010003039092916D804990A2359433039401810
:102020001443761C0490F1E7189802C804911890A4
:10203000002904DA012040030443484204900220AE
:102040000443761C30782E2814D104200443707881
:10205000761C2A2809D11898761C80C8189009E0A7
:102060000A214F43303FC719761C3078014630397A
:102070000929F5D930786C2810D006DC4C281AD004
:1020800068280ED06A2817D104E0742813D07A2863
:1020900012D110E00120400504430CE001210905A4
:1020A00001E0032109050C437178814203D101202D
:1020B00000052418761C761C3078119066280BD009
:1020C00013DC58287DD009DC00287BD04528F6D0C9
:1020D0004628F4D047281AD1A5E118E0632835D066
:1020E000642870D0652812D19DE170286CD008DC7E
:1020F0006728F1D069287BD06E280DD06F2806D1D3
:10210000BAE073282ED0752871D0782859D01A9A41
:10211000199990476D1C7EE16002400F022809D09A
:1021200003280DD00428189801680DD00D60001DFB
:10213000189070E11898EA1701680D604A60F6E798
:10214000189801680D80F2E70D70F0E718986A465C
:1021500001781172001D18900020507202A80090A2
:10216000012005E0189802C8189000200091C04393
:1021700061070DD5002101E00199491C0191B94287
:1021800012DA8142F8DB009A515C0029F4D10BE0AD
:10219000002101E00199491C01918142FADB019A79
:1021A0000099895C0029F5D1019904981A9B471A76
:1021B00021463846199A00F097FA019940194518B6
:1021C0000BE04FE02CE113E04EE00098009900781E
:1021D000491C00911A9A199990470198401E019044
:1021E000401CF2D1214638461A9B199A10E137E07B
:1021F0000A200021009001916002410F022907D0BE
:10220000189A01CA1892C2179446032908D00AE006
:102210001898C01DC108C90005C91891944607E067
:1022200000B2C2179446042902D140B2C1178C46AD
:1022300000226146944506DA0A4600214042914157
:102240008C462D2102E0210504D52B216A4611730D
:10225000012103E0E10701D02021F7E7029155E0D9
:102260000A200AE0102008E010200090002104203D
:1022700004430191082703E0082000210191009008
:102280006002410F022907D0189A01CA1892002251
:102290009446032908D008E01898C01DC108C90059
:1022A00005C91891944603E080B2042900D1C0B258
:1022B00000210291210729D51199702906D0009A91
:1022C0001021019B4A401A4305D00EE040216A4686
:1022D0001173012108E06146014306D030216A46AE
:1022E00011731199517302210291009A0821019BE7
:1022F0004A401A430AD16146014301D1610705D51D
:1023000030216A46117301217F1E029111995829CB
:1023100004D035A10E910DA90D910DE037A1F9E77B
:102320006146019B009AFDF7E7FF0E9B8C469B5C84
:102330000D9A521E0D92137061460143F0D10D9813
:1023400005A9081A20300190600703D50120000478
:10235000844300E001270198874201DD381A00E03C
:102360000020019900904118029809180498401A19
:102370000490E00306D421461A9B199A049800F0B1
:10238000B3F94519002706E003A81A9AC05D199908
:1023900090476D1C7F1C02988742F5DBE0030CD54B
:1023A00021461A9B199A049800F09EF9451904E0F9
:1023B0001A9A3020199990476D1C0099481E009078
:1023C0000029F5DC08E00D980D990078491C0D9165
:1023D0001A9A199990476D1C0199481E019000297D
:1023E000F1DC63E10928010030313233343536370E
:1023F0003839616263646566000000003031323351
:1024000034353637383941424344454600000000F0
:1024100000F05AF94519761C3078002800D0E2E522
:1024200028461BB0F0BD600700D406271898C01DD1
:10243000C108C90048680A680831C30FDB07189152
:10244000190001D09CA108E0210501D59BA104E061
:10245000E10701D09AA100E09AA1430011985B081E
:10246000109165280CD006DC452809D046281DD0DF
:10247000472841D141E0662818D067283CD13CE08C
:102480000021112F01DB112000E0781C0191009048
:1024900008A911A8FFF7E8FC139905910021119AEA
:1024A00015927F1C12980197009150E00120C007FF
:1024B00003900120019008A9009711A8FFF7D4FC10
:1024C000139A149905920022119B00921298159369
:1024D000059A0192002901D0104602E0791C4018AB
:1024E0000190381A01D5019804E04042401E009046
:1024F000781C0190C01B029043E0012F00DA0127F5
:102500000021112F01DD112000E0384601910090DB
:1025100008A911A8FFF7A8FC13990591119A0021A9
:10252000129815920091019721070CD40599B94290
:1025300001DB019900E00191012904DD159A491E92
:10254000515C302906D0B84201DA011D05DA0121BB
:10255000029115E00199491EEDE7002805DC00997C
:10256000411800910199091A03E0019A411C914216
:1025700000DD01910099401A401C02900120C00723
:102580000390200706D402990198814202DB0020C3
:10259000C043029000206946C87707AF0121039825
:1025A0000337C907884224D0022011902B201290B3
:1025B000039800280CDA404203902D20129007E087
:1025C0000A210398FDF779FE30317F1E03903970A0
:1025D0001199481E11900029F2DC03980028EFD1D0
:1025E000791E129808703078202108404530BF1EAF
:1025F000387006A8C01BC01D0390109800780028F2
:1026000000D00120019941180298C01709180398B9
:1026100009180498401A401E0490E00306D421468D
:102620001A9B199A049800F05FF8451910980078E1
:10263000002803D01A9A199990476D1CE00324D5FD
:1026400021461A9B199A049800F04EF845191CE08F
:102650000098002807DB00990598884203DD15984B
:10266000405C199901E0199930201A9A9047009816
:102670006D1C401C00900298401E0290002804D15E
:102680001A9A2E20199990476D1C0199481E0190A5
:102690000029DDDC05E038781A9A7F1C19999047EB
:1026A0006D1C0399481E03900029F4DC21461A9BF7
:1026B000199A0498ACE600002D0000002B000000E1
:1026C0002000000000000000F8B5044600251E466A
:1026D0001746880404D405E039462020B0476D1C15
:1026E000641EF9D52846F8BDFFB50446002581B023
:1026F0001E46C80301D5302700E02027880404D5F2
:1027000005E038460399B0476D1C641EF9D528468C
:1027100005B0F0BD0A68531C0B60107070470000D4
:1027200000000000000000005F0000000000000743
:10273000000700000000147F147F14000000242A0A
:102740007F2A12000000231308646200000036494B
:102750005522500000000005030000000000001C8E
:102760002241000000000041221C00000000082A55
:102770001C2A0800000008083E080800000000505D
:102780003000000000000808080808000000006091
:1027900060000000000020100804020000003E510C
:1027A00049453E00000000427F40000000004261B9
:1027B0005149460000002141454B310000001814EA
:1027C000127F1000000027454545390000003C4AB3
:1027D0004949300000000171090503000000364935
:1027E000494936000000064949291E00000000360C
:1027F000360000000000005636000000000000080F
:10280000142241000000141414141400000041228A
:1028100014080000000002015109060000003249BE
:1028200079413E0000007E1111117E0000007F49B9
:102830004949360000003E414141220000007F41ED
:1028400041221C0000007F494949410000007F09E6
:102850000901010000003E414151320000007F08A3
:1028600008087F00000000417F4100000000204078
:10287000413F010000007F081422410000007F401A
:102880004040400000007F0204027F0000007F04FF
:1028900008107F0000003E4141413E0000007F09DA
:1028A0000909060000003E4151215E0000007F0939
:1028B000192946000000464949493100000001013C
:1028C0007F01010000003F4040403F0000001F200A
:1028D00040201F0000007F2018207F0000006314AC
:1028E0000814630000000304780403000000615131
:1028F00049454300000000007F4141000000020400
:1029000008102000000041417F0000000000040288
:10291000010204000000404040404000000000016F
:1029200002040000000020545454780000007F4846
:102930004444380000003844444420000000384437
:1029400044487F0000003854545418000000087EAA
:10295000090102000000081454543C0000007F08E4
:1029600004047800000000447D4000000000204086
:10297000443D00000000007F10284400000000419A
:102980007F40000000007C041804780000007C08F0
:1029900004047800000038444444380000007C14EB
:1029A000141408000000081414187C0000007C08AF
:1029B0000404080000004854545420000000043F60
:1029C0004440200000003C4040207C0000001C20CF
:1029D00040201C0000003C4030403C0000004428E7
:1029E0001028440000000C5050503C00000044648B
:1029F000544C440000000008364100000000000074
:102A00007F000000000000413608000000000804BC
:102A10000810080000000000000000400000000155
:102A200006000000000406000D0A3D3D3D3D3D3D11
:102A30003D20485433322053656E736F7220496EC7
:102A4000746567726174696F6E203D3D3D3D3D3D2B
:102A50003D0D0A00546773313832303A20252E3448
:102A6000662056207C204131284D51313337293A98
:102A700020252E326656207C204132284D513329A4
:102A80003A20252E326656207C204133284D513184
:102A90003336293A20252E3266560D0A0048543323
:102AA000322053797374656D20496E69742E2E2E11
:102AB000004D5133203A20252E33662056004D51CB
:102AC000313336203A20252E33662056004D5131C1
:102AD0003337203A20252E33662056005467733151
:102AE0003832303A20252E33662056000C2B000059
:102AF00000000020040000004A1E0000102B00000F
:102B000008000020200200005A1E00000000000003
:04000005000000C136
:00000001FF
