:020000040000FA
:1000000028020020C1000000E10E0000CD0E00001B
:10001000FFFFFFFFFFFFFFFFFFFFFFFFFFFFFFFFF0
:10002000FFFFFFFFFFFFFFFFFFFFFFFF310F00009C
:10003000FFFFFFFFFFFFFFFFE30E0000330F000095
:1000400035010000350100003501000035010000D8
:1000500035010000350100003501000035010000C8
:10006000FF090000350100003501000035010000E6
:1000700035010000350100003501000035010000A8
:100080003501000035010000350100003501000098
:100090003501000035010000350100003501000088
:1000A0003501000035010000350100003501000078
:1000B0003501000035010000350100003501000068
:1000C0001D4880471D4880471D4800471D4801695D
:1000D000002908D14169002905D18169002902D18F
:1000E000C169002909D01848C1680901090D002912
:1000F0000ED005290CD006290AD0BFF34F8F134824
:100100001349016013491248C860BFF34F8FFEE7DF
:100110000E4801680E48884200D070470E480F49CB
:1001200001600A480E4901607047FEE7FEE7FEE7FE
:10013000FEE7FEE7FEE70000CD000000350F0000FF
:100140006501000000030840800108400000002015
:100150000400FA0500ED00E0008108400100000005
:10016000000000000348854600F0F2FA004800470E
:10017000C511000028020020024670B54A40D30F86
:10018000DB0740002DD04A002AD0010E140E0002D9
:1001900012020919400A520A8418E5010446544320
:1001A000000A120A2E045043A4194219200CC54318
:1001B000AA18120C0125AD03521C521912047F39E2
:1001C000240400D0521C104301D44000491EC2B286
:1001D0000C06C0092018401C4008802A02D003E009
:1001E000002070BD40084000002900DA00201843BC
:1001F00070BD70B502464A40D50F40004A00ED0779
:1002000040085208002814D0002A12D0C40DD30D83
:1002100041020120C0055202490A520AE41A091893
:1002200012187D34914201D3641C00E04900002C77
:1002300001DA002070BD0023914201D3891A0343E3
:10024000400849000028F7D100290AD0914202D184
:100250000121C90705E0914201D2012101E00121FC
:10026000C943E005C018401900F06BF870BD10B527
:1002700000229623114600F06CF810BDC20FD20781
:10028000400040080BD0C10D0723DB01C918400214
:100290000905400A1143C208400711437047002076
:1002A0000146704770B50446002903D00020202283
:1002B000012310E0002801D00020C043C046C04602
:1002C0000DE02546D5408D4205D30D469540641B73
:1002D0001D46954040191546521E002DF1DC214661
:1002E00070BDF0B51FB40646002082B0054640241C
:1002F000019100901BE0019922460F46304600F024
:100300004FFA049A059B801A994110D3104619465A
:10031000224600F035FA361A8F4101972246012015
:100320000021009F00F02CFA38184D410090204623
:10033000641E0028DFDC019B00982946324607B086
:10034000F0BD002904DA401C490001D140084000FA
:10035000704770B40024050C05D11024000402D1AC
:10036000002921D01124050E01D100020834050F07
:1003700001D10001241D850F01D18000A41C00289B
:1003800001DB4000641C002908D020252E1B0D46EF
:10039000F540A14000D001212943084301061B1B61
:1003A000000ADB1D02D5002070BC7047DB05181861
:1003B00080180029F8DA401C4900F5D170BC4008CB
:1003C00040007047F0B507460846584087B0C00F58
:1003D000049048000E46590040084908BC1A88415C
:1003E00005D2384631461E4617460B46024658008F
:1003F000400810434CD0300D039040055900400D8B
:10040000490D0590401A0290402872DA1803012124
:10041000000B09050843019004980092002805D0BC
:100420000199524200208841009201900298402197
:100430000A1A0199009800F0A3F905460C466B468C
:1004400007CB00F0BEF9C0197141039A0E0D0023CD
:10045000D71756401A467A40164344D0049A002AC9
:100460002DD0029A012A039A15DC1205C01A914177
:1004700001263605001C7141D20F059ED20700935C
:10048000019202962A46234600F0BBF907B0F0BD60
:1004900038463146FAE71605224A0F46B218C01A06
:1004A000B74101210905001C4F4100187F41114649
:1004B00018187941E20F10436D19644113E0E20707
:1004C0006D0815436408C2071443039A01261205F8
:1004D000C01A91413605001C7141CE0740083043D7
:1004E0004908C01851412A46234600F07DF9CDE75E
:1004F000FFE7049801224000C117121A00238B4124
:1005000004983146C417381AA141EEE730B40124EB
:10051000E407634030BC55E730B40124E407614090
:1005200030BC4FE70000E0FFF0B51FB488B00B9976
:100530000998002448400999C00F490049080991C9
:10054000C0070B990090490049080B910999089838
:10055000A64608431CD00B990A98084318D009985E
:1005600001244000420D4800410D09982405000374
:10057000000B204309900B980003000B20430B90C5
:1005800050181C494018002201901446104605E0FE
:10059000002001460DB0F0BD032801DA034600E05B
:1005A00003239C46C11A0AAE0AE05F0008ADED5B6A
:1005B0004F00F75B7D430027AA187C41491C5B1E56
:1005C0006145F2DD410004AB5A522104120C0A438A
:1005D000240C401C0828DFDB01980290009970462B
:1005E00001910090059B049A0799069800F009F97B
:1005F000D0E700000DFCFFFFF0B50C465C4085B075
:10060000E40FE40703944C00002664085900944664
:10061000490802460296224321D062460A431ED070
:100620006200570D4A000E032303550D01240246B4
:100630002C492405781B1B0B360B401823432643FB
:10064000614600901C46501AB44103D30098401CE8
:10065000009002E0921800985B41002803DA002025
:10066000014605B0F0BD0020012109050746864678
:1006700011E064461D46141BB54106D36546521B66
:10068000B341744607430C43A646CD0740084908CA
:10069000284392185B4105460D43EAD110461843A2
:1006A00013D06046194650407140084306D060465A
:1006B000101AB34106D20122002306E000220123D2
:1006C000DB0702E00122D243531000987446010573
:1006D000381C6141029C039D0019694100F084F8B7
:1006E000BFE70000FD0300004A0009030123090BD6
:1006F0001B0519430A4B10B5520D9A4202DA00202D
:10070000014610BD064B34339A4203DC9A1A00F0BE
:1007100047F810BD034BD21800F032F810BD0000AE
:10072000FF030000CDFBFFFF10B5002904DB01240F
:10073000E40740428C412146002B04DB1C46012388
:10074000DB075242A341994200D1904210BD000004
:100750001CB5094800900948019005460126009CF7
:1007600005E0E36807CC33430C3C98471034AC42B7
:10077000F7D3FFF7FBFC0000F81C0000181D000079
:1007800010B5202A04DB0146203A9140002010BD1C
:10079000914020239C1A0346E3401943904010BD2A
:1007A00010B5202A04DB0846203AD040002110BDB5
:1007B0000B46D340D0402024A21A9140084319464A
:1007C00010BD10B5202A06DBCB170846203A104191
:1007D000C1170B4306E00B461341D0402024A21A58
:1007E00091400843194610BD10B5002B08DA0024CB
:1007F000401C614192185B411A4301D140084000FE
:1008000010BDF0B51FB482B005460C0003D00846F9
:1008100000F090FD02E000F08DFD203002460090D7
:1008200021462846FFF7ACFF049B059A04460F4675
:1008300018431143084314D0184610431BD00098A6
:1008400040210A1A18460599FFF7AAFF05460E46E9
:10085000009A05990498FFF793FF084305D00120FB
:1008600004E02046394607B0F0BD0020C11705431B
:100870000E432C43374300990E986305401A7905BF
:10088000E40A00220C43FD0A0A3002D5002001468A
:10089000E9E70105101969410C9C0D9D001969419A
:1008A000FFF7A2FFDFE782B0019000910098019965
:1008B0008C22885002B0704780B582B001906846A3
:1008C00001700078002809D0FFE7019908688022AC
:1008D00010430860019800F0F7F805E001990868F6
:1008E000802290430860FFE702B080BD80B58CB0E5
:1008F000002006900B900A90099009A9487940229F
:1009000010434871887801230893184388708878C9
:100910000822049210438870C87A1843C8720B9A50
:100920000A99099800F02AFA06980C2101910222EE
:10093000059200F0F1F8059A03200390102102912E
:1009400000F0EAF80199069A174800F065FA029952
:10095000069A164800F060FA0298062100F048FA5C
:10096000039A069B12480790194600F077F80599FC
:10097000069B07981A4600F043F80399069B0798D0
:10098000089A00F03DF80499059A069B079800F034
:1009900037F80798089900F089F807980899FFF741
:1009A0008BFF0CB080BDC04600000B4000600B40C8
:1009B0000000014083B0009101460098029101A916
:1009C00008700298097889004018006B80B203B063
:1009D000704783B002900191029884214058019998
:1009E000084204D0FFE769460120087003E0694629
:1009F00000200870FFE76846007803B07047704732
:100A000010B586B000920A460099059004A80270BD
:100A100003AA117005991478FC231C400919496830
:100A2000029111788907CC0E1F21A1400191019CF0
:100A30000299A1430291007811788907C90E884074
:100A40000190019902980843029002980599127842
:100A50001A408918486006B010BD000010B584B077
:100A6000039002A8017001A90A7069460B70007812
:100A7000032801D1FFE7FFE76846007800040A4930
:100A8000401801A909780902FF22D24389180843B6
:100A900002A9097840180399096880221140084387
:100AA0000399086004B010BD0000FFFF82B0019000
:100AB000009100981F210840019A10670098884310
:100AC0000199486702B0704781B0009000990868AA
:100AD000402210430860FFE70098006840060028A5
:100AE00001D5FFE7F8E701B0704782B00190684692
:100AF00001700078002806D0FFE70199486F0122B5
:100B00001043486705E00199486F01229043486708
:100B1000FFE702B07047000088B00790069105A873
:100B200002700798C00027494018049000200390E5
:100B3000029001900090FFE70098082840DCFFE752
:100B400000200290019006980099C84000060028F5
:100B50002ED0FFE700200390FFE7039807281ED858
:100B6000FFE706980399C8400099C840C0070028CD
:100B700010D0FFE7039880000F21814002980843BE
:100B8000029005A8017803988000814001980843ED
:100B90000190FFE7FFE70398401C0390DDE704980E
:100BA0000068029988430199084304990860FFE7A7
:100BB0000498001D0490FFE7009808300090BBE700
:100BC00008B070472020024080B586B005902948C3
:100BD000006807210840039000F050F8059908606C
:100BE0000398401E0290062828D80298810001A090
:100BF00040588746110C0000190C0000210C000021
:100C00003D0C00003D0C0000290C0000330C0000DE
:100C100005990868486015E005994048486011E06A
:100C200005993E4848600DE005990120C0034860E1
:100C300008E005997D200002486003E00599002046
:100C40004860FFE70C48006804900498052805D325
:100C5000FFE7059840684009019005E00598406865
:100C60000499C8400190FFE701980599886006B093
:100C700080BDC046348008402080084088B02448A9
:100C8000006801210A021040000A03902148006810
:100C9000C00F02902048006849020840400A0190B5
:100CA0000198002803D1FFE7002007902DE01B48A2
:100CB0000490FC480068C000C00F009004980099A0
:100CC000C84004900298012803D1FFE704980790D8
:100CD0001BE0F44800681F21C9050840C00D0590BD
:100CE0000598002803D1FFE710200590FFE7ED48A5
:100CF0000068032149050840400D069004990598B5
:100D000048430699C8400790FFE7079808B0704726
:100D1000008008401C8008400480084000127A00CF
:100D200080B586B0014605A80170002101910599A2
:100D3000C9081C221140104A8918009100782E28F9
:100D400003D1FFE702200190FFE705A801781F22E9
:100D50001140017000990968007803228240114017
:100D6000C14001984018019002A8FFF72DFF049898
:100D70000199C84006B080BD3880084010B587B0E2
:100D800006920591049003A80370BF490968029177
:100D9000164909680191BA4909680091049A0299B3
:100DA00091430291059A019991430191069A009904
:100DB00091430091007800280DD0FFE70499029834
:100DC00008430290059901980843019006990098FC
:100DD00008430090FFE70298AB4908600198034977
:100DE00008600098A649086007B010BD2C80084034
:100DF00010B582B001AB18706A46117005490868D9
:100E00001B7807249C40A04312789A401043086046
:100E100002B010BD2880084083B0029001A8018074
:100E2000684602700078002807D0FFE701A8028812
:100E3000029948681043486006E001A802880299B8
:100E4000486890434860FFE703B0704780B588B0BA
:100E5000024607A802700691007801011A4840185E
:100E600005900020009004900390029002A9487918
:100E70000123019318434871487940221043487177
:100E8000049A03990298FFF779FF059A1079D1889F
:100E9000127AFFF741FE059A907A9189927BFFF7CB
:100EA0003BFE05980068069900F0FEF80099019A4B
:100EB0000598006800F062F9019A059800681146EB
:100EC00000F05CF908B080BD2C1C0000FFE703486F
:100ED0000068002801D1FFE7F9E77047080000200B
:100EE0007047704780B584B0E12040020090012037
:100EF0000002694688800020C88008810390FFF7BF
:100F0000A5FF04B080BD000081B000906846007865
:100F1000012189070860FFE704480068C005002830
:100F200001D4FFE7F8E7009801B0704710000040D7
:100F300070477047B0B551491020086050490868A3
:100F4000402210430860FFE74E480068272801D080
:100F5000FFE7F9E74C4908680322920290430860D2
:100F60004A4908680122D20210430860FFE7484856
:100F700000680007C00F002801D1FFE7F7E74349E9
:100F8000086803221043042290430860FFE74148A9
:100F9000006807210840032801D0FFE7F7E73E4932
:100FA0000868012210430623984308603B4900204B
:100FB0000860364908685402A0430860384B186836
:100FC00015022843186008680825A84308601868B7
:100FD000204318600868920210430860FFE72C481D
:100FE00000684007C00F002801D1FFE7F7E7244958
:100FF00008684022904308600F20C0052949086016
:10100000086801221307184308602549086813027D
:10101000984308601D490868520210430860FFE7C2
:101020001B4800688007C00F002801D1FFE7F7E7E1
:1010300019490868032210430422904308601749A5
:1010400000200860114908680122104306229043DD
:101050000860FFE70F48006807210840012801D019
:10106000FFE7F7E70C49086810221043086008689A
:101070000122120310430860B0BDC0460C81084035
:101080003080084008A106402480084004800840C1
:101090000880084034800840000208402080084052
:1010A000008008401880084080B586B00590049103
:1010B000002003900598029005984068294908404F
:1010C0000499CA8810438A8810430A891043C96862
:1010D00008430599486002980190012189078842D8
:1010E00019D0FFE70198204988421ED0FFE70198F8
:1010F0001E49884223D0FFE701981D4988420FD03E
:10110000FFE701981B49884214D0FFE701981A496C
:10111000884219D01DE01820FFF702FE039018E066
:101120001A20FFF7FDFD039013E01C20FFF7F8FDE8
:1011300003900EE01E20FFF7F3FD039009E0082066
:10114000FFF7EEFD039004E00A20FFF7E9FD0390AE
:10115000FFE7039804990968FFF7A4F80599486226
:1011600006B080BDFCE0FFFF001000400020004002
:1011700000000440001004400020044083B00290AE
:101180000191684602700078002808D0FFE70198B6
:1011900010228240029948681043486007E0019895
:1011A000102282400299486890434860FFE703B0EC
:1011B000704780B582B0019000910198FFF7A4FEBE
:1011C00002B080BDF0B595B000201490FFF78AFE04
:1011D000474800F09FF8474800F09CF8FFF786FB6F
:1011E000FFE745480121FFF780FCFFE74248042163
:1011F000FFF7EFFB002801D1FFE7F7E73E48099032
:101200000521FFF750FB099800211291FFF7D2FB4F
:1012100001460998394A0D9211600121FFF7CAFB76
:101220000D9A0146099851600221FFF7C3FB014660
:101230000D9881600068FFF71AF831490A91FEF7AE
:101240009BFF30490B91FEF7D4FF01460D982E4AC3
:101250000C9211604068FFF70AF80A99FEF78CFFBC
:101260000B99FEF7C6FF0C9A01460D9851608068F5
:10127000FEF7FDFF0A99FEF77FFF0B99FEF7B9FF16
:101280000D9902460C988260096811910068FEF77A
:10129000F5FF02460C980E920A460D990F92496886
:1012A00010914068FEF7EAFF04460C980D460D9930
:1012B0008E688068FEF7E2FF0E9A0F9B0746109833
:1012C00007911199069704960395029400900F4890
:1012D00000F020F812981390FFE713980C49884209
:1012E00005D8FFE7FFE71398401C1390F5E778E770
:1012F000C21C00003C1C0000000001400C0000204B
:101300003333534000F07F4518000020771C000065
:101310007F8D5B000FB410B503A9044B044A0298FB
:1013200000F0E8F810BC08BC04B01847B311000086
:10133000000000202021020C01D010211046020ADA
:1013400001D010460839020901D01046091F820851
:1013500001D01046891E420801D0881E7047081A25
:10136000704702E008C8121F08C1002AFAD170476E
:101370007047002001E001C1121F002AFBD1704715
:10138000F0B51FB486B00998089A030D00210243F6
:1013900014D05148514A1818504305141198012887
:1013A00010981AD0281A401C00264D4F4D4900961F
:1013B00001910490002812DA444211E011980124AE
:1013C00049A3012801D11098C1430698119A84605D
:1013D0000360C26041600BB0F0BD4042E4E70446E8
:1013E000210500203F4A001C51410391029012E068
:1013F000E00707D032463B4601990098FFF794F882
:101400000191009032463B4610461946FFF78CF892
:1014100006460F466410002CEAD10498039B00286E
:10142000029A0999089806DAFFF77EF8019B009A5C
:10143000FFF77AF805E0FFF7DFF8019B009AFFF766
:10144000DBF804460E460022284BFFF76DF903D85F
:101450000020C043014607E00022254B20463146CC
:10146000FEF7B0FFFFF740F9102409E0002C0ADB7B
:101470000A220023FEF735FF079B30321A55641EFF
:1014800002460A43F2D11122641C079B121B1C194D
:10149000119B012B03D0012308430ED10AE008431E
:1014A00004D0112010900020119077E71098151AA1
:1014B0006D1E0BE01098824202DD00236D1C03E0DC
:1014C000824201DA00236D1E002BEED0069811999E
:1014D0008260C16030C07EE701FCFFFF104D00005C
:1014E000000014400000F03F300000000000F04316
:1014F0000000E03FFFB597B00646002518E225281A
:1015000077D100242746FD49049400E00443761C6B
:1015100032780120203A90400842F7D130782A28CA
:101520000ED00222307801463039092916D80499A4
:101530000A235943303940181443761C0490F1E7CC
:10154000189802C804911890002904DA0120400379
:1015500004434842049002200443761C30782E282D
:1015600014D1042004437078761C2A2809D11898D5
:10157000761C80C8189009E00A214F43303FC719F4
:10158000761C3078014630390929F5D930786C2835
:1015900010D006DC4C281AD068280ED06A2817D143
:1015A00004E0742813D07A2812D110E001204005FD
:1015B00004430CE00121090501E0032109050C4366
:1015C0007178814203D1012000052418761C761C15
:1015D0003078119066280BD013DC58287DD009DCB8
:1015E00000287BD04528F6D04628F4D047281AD1C9
:1015F000A5E118E0632835D0642870D0652812D1A1
:101600009DE170286CD008DC6728F1D069287BD078
:101610006E280DD06F2806D1BAE073282ED0752819
:1016200071D0782859D01A9A199990476D1C7EE18B
:101630006002400F022809D003280DD00428189812
:1016400001680DD00D60001D189070E11898EA1720
:1016500001680D604A60F6E7189801680D80F2E7AE
:101660000D70F0E718986A4601781172001D189005
:101670000020507202A80090012005E0189802C8CE
:10168000189000200091C04361070DD5002101E0B2
:101690000199491C0191B94212DA8142F8DB009AA2
:1016A000515C0029F4D10BE0002101E00199491CB3
:1016B00001918142FADB019A0099895C0029F5D1F8
:1016C000019904981A9B471A21463846199A00F046
:1016D00097FA0199401945180BE04FE02CE113E00F
:1016E0004EE0009800990078491C00911A9A1999C7
:1016F00090470198401E0190401CF2D12146384687
:101700001A9B199A10E137E00A20002100900191FC
:101710006002410F022907D0189A01CA1892C21715
:101720009446032908D00AE01898C01DC108C900D2
:1017300005C91891944607E000B2C21794460429DF
:1017400002D140B2C1178C4600226146944506DAA8
:101750000A460021404291418C462D2102E021059C
:1017600004D52B216A461173012103E0E10701D062
:101770002021F7E7029155E00A200AE0102008E056
:10178000102000900021042004430191082703E069
:1017900008200021019100906002410F022907D02A
:1017A000189A01CA189200229446032908D008E02A
:1017B0001898C01DC108C90005C91891944603E0D6
:1017C00080B2042900D1C0B200210291210729D59D
:1017D0001199702906D0009A1021019B4A401A43A2
:1017E00005D00EE040216A461173012108E06146F0
:1017F000014306D030216A461173119951730221B9
:101800000291009A0821019B4A401A430AD161467D
:10181000014301D1610705D530216A4611730121C9
:101820007F1E02911199582904D035A10E910DA95E
:101830000D910DE037A1F9E76146019B009AFEF793
:1018400050FD0E9B8C469B5C0D9A521E0D921370A0
:1018500061460143F0D10D9805A9081A2030019086
:10186000600703D501200004844300E001270198AC
:10187000874201DD381A00E00020019900904118EC
:10188000029809180498401A0490E00306D42146EF
:101890001A9B199A049800F0B3F94519002706E03D
:1018A00003A81A9AC05D199990476D1C7F1C029875
:1018B0008742F5DBE0030CD521461A9B199A049860
:1018C00000F09EF9451904E01A9A302019999047C2
:1018D0006D1C0099481E00900029F5DC08E00D9869
:1018E0000D990078491C0D911A9A199990476D1C11
:1018F0000199481E01900029F1DC63E109280100EB
:101900003031323334353637383961626364656675
:101910000000000030313233343536373839414237
:10192000434445460000000000F05AF94519761C72
:101930003078002800D0E2E528461BB0F0BD6007F3
:1019400000D406271898C01DC108C90048680A6855
:101950000831C30FDB071891190001D09CA108E0E2
:10196000210501D59BA104E0E10701D09AA100E087
:101970009AA1430011985B08109165280CD006DCF1
:10198000452809D046281DD0472841D141E0662886
:1019900018D067283CD13CE00021112F01DB112039
:1019A00000E0781C0191009008A911A8FFF7E8FC5D
:1019B000139905910021119A15927F1C1298019795
:1019C000009150E00120C00703900120019008A978
:1019D000009711A8FFF7D4FC139A149905920022DE
:1019E000119B009212981593059A0192002901D03B
:1019F000104602E0791C40180190381A01D5019870
:101A000004E04042401E0090781C0190C01B0290F0
:101A100043E0012F00DA01270021112F01DD112001
:101A200000E038460191009008A911A8FFF7A8FC32
:101A300013990591119A002112981592009101971E
:101A400021070CD40599B94201DB019900E001910D
:101A5000012904DD159A491E515C302906D0B8428F
:101A600001DA011D05DA0121029115E00199491EF3
:101A7000EDE7002805DC0099411800910199091A49
:101A800003E0019A411C914200DD01910099401A46
:101A9000401C02900120C0070390200706D4029941
:101AA0000198814202DB0020C04302900020694679
:101AB000C87707AF012103980337C907884224D0AC
:101AC000022011902B201290039800280CDA40423B
:101AD00003902D20129007E00A210398FEF7E2FB05
:101AE00030317F1E039039701199481E11900029E2
:101AF000F2DC03980028EFD1791E12980870307834
:101B0000202108404530BF1E387006A8C01BC01DEC
:101B1000039010980078002800D001200199411806
:101B20000298C0170918039809180498401A401E13
:101B30000490E00306D421461A9B199A049800F0F9
:101B40005FF8451910980078002803D01A9A19995F
:101B500090476D1CE00324D521461A9B199A0498DE
:101B600000F04EF845191CE00098002807DB0099AA
:101B70000598884203DD1598405C199901E0199990
:101B800030201A9A904700986D1C401C00900298D3
:101B9000401E0290002804D11A9A2E2019999047CD
:101BA0006D1C0199481E01900029DDDC05E03878A4
:101BB0001A9A7F1C199990476D1C0399481E03902F
:101BC0000029F4DC21461A9B199A0498ACE600001F
:101BD0002D0000002B00000020000000000000008D
:101BE000F8B5044600251E461746880404D405E0CF
:101BF00039462020B0476D1C641EF9D52846F8BD33
:101C0000FFB50446002581B01E46C80301D5302724
:101C100000E02027880404D505E038460399B04742
:101C20006D1C641EF9D5284605B0F0BD00000040CB
:101C30000000000106000000000406005265616417
:101C4000696E67204144432076616C756573206638
:101C5000726F6D2050413228434832292C20504168
:101C60003328434833292C20616E642050443428A3
:101C7000434838290D0A0050413220284348322970
:101C80003A202534752028252E32665629207C20BE
:101C90005041332028434833293A202534752028E1
:101CA000252E32665629207C205044342028434873
:101CB00038293A202534752028252E326656290DDC
:101CC0000A000D0A3D3D3D3D3D3D3D204854333227
:101CD000204144432053657175656E636520506FE4
:101CE0006C6C696E67204578616D706C65203D3D58
:101CF0003D3D3D3D3D0D0A00181D00000000002047
:101D000004000000621300001C1D000008000020F9
:0C1D100020020000721300000000000020
:04000005000000C136
:00000001FF
