:020000040000FA
:1000000010020020C10000001D1500003512000084
:10001000FFFFFFFFFFFFFFFFFFFFFFFFFFFFFFFFF0
:10002000FFFFFFFFFFFFFFFFFFFFFFFF951A00002D
:10003000FFFFFFFFFFFFFFFFD9170000971A000027
:1000400035010000350100003501000035010000D8
:1000500035010000350100003501000035010000C8
:1000600035010000350100003501000035010000B8
:1000700035010000350100003501000035010000A8
:100080003501000035010000350100003501000098
:100090003501000035010000350100003501000088
:1000A0003501000035010000350100003501000078
:1000B0003501000035010000350100003501000068
:1000C0001D4880471D4880471D4800471D4801695D
:1000D000002908D14169002905D18169002902D18F
:1000E000C169002909D01848C1680901090D002912
:1000F0000ED005290CD006290AD0BFF34F8F134824
:100100001349016013491248C860BFF34F8FFEE7DF
:100110000E4801680E48884200D070470E480F49CB
:1001200001600A480E4901607047FEE7FEE7FEE7FE
:10013000FEE7FEE7FEE70000CD000000991A000090
:100140006501000000030840800108400000002015
:100150000400FA0500ED00E0008108400100000005
:10016000000000000348854600F098FB0048004767
:10017000291D000010020020421C0178401C0029AB
:10018000FBD1801A7047F8B502464A40D40F4200AE
:100190004B0052085B089A4202D2024608461146BA
:1001A0004A0023D0C30D4A00DDB2120EAD1A202D35
:1001B00035DA49020126490AF6058A19002C00D0D1
:1001C000524220214F1B1146B9402A411018C20D3E
:1001D0009A4221D0002C17D0012D08DCDA05801AB4
:1001E000D20F8019D207DBB200F059F9F8BDDA0559
:1001F000801A012340001B06C01880185A4280183C
:10020000CA0F1043490007E04908C2071143DA0545
:10021000801A80194008801800F039F9F8BD610093
:100220000122511A001BF7E70122D2075140AAE729
:100230000122D2075040A6E7024670B54A40D30FCC
:10024000DB0740002DD04A002AD0010E140E000218
:1002500012020919400A520A8418E501044654435F
:10026000000A120A2E045043A4194219200CC54357
:10027000AA18120C0125AD03521C521912047F3921
:10028000240400D0521C104301D44000491EC2B2C5
:100290000C06C0092018401C4008802A02D003E048
:1002A000002070BD40084000002900DA00201843FB
:1002B00070BD70B502464A40D50F40004A00ED07B8
:1002C00040085208002814D0002A12D0C40DD30DC3
:1002D00041020120C0055202490A520AE41A0918D3
:1002E00012187D34914201D3641C00E04900002CB7
:1002F00001DA002070BD0023914201D3891A034323
:10030000400849000028F7D100290AD0914202D1C3
:100310000121C90705E0914201D2012101E001213B
:10032000C943E005C018401900F0B1F870BD0122C2
:10033000D207002800DB101A002900DB511A814285
:1003400001D30120704700207047C217C10F5040F1
:1003500010B54018CA079623002100F0A0F810BD80
:1003600010B500229623114600F099F810BDC20F77
:10037000410040020123400ADB05D207090EC018E4
:100380007F2901DA00207047962903DC9623591A49
:10039000C84001E096398840002AF4D040427047B6
:1003A000410040020122400AD205090E80187F292F
:1003B00001DA00207047962903DC9622511AC840C2
:1003C0007047963988407047C20FD20740004008F6
:1003D0000BD0C10D0723DB01C91840020905400AF3
:1003E0001143C2084007114370470020014670477F
:1003F00070B50446002903D000202022012310E01C
:10040000002801D00020C043C046C0460DE025466C
:10041000D5408D4205D30D469540641B1D46954041
:1004200040191546521E002DF1DC214670BDF0B575
:100430001FB40646002082B005464024019100907A
:100440001BE0019922460F46304600F04FFA049A0D
:10045000059B801A994110D310461946224600F098
:1004600035FA361A8F410197224601200021009F5C
:1004700000F02CFA38184D4100902046641E0028E8
:10048000DFDC019B00982946324607B0F0BD002909
:1004900004DA401C490001D140084000704770B4A4
:1004A0000024050C05D11024000402D1002921D01C
:1004B0001124050E01D100020834050F01D10001FD
:1004C000241D850F01D18000A41C002801DB400001
:1004D000641C002908D020252E1B0D46F540A140A4
:1004E00000D001212943084301061B1B000ADB1D24
:1004F00002D5002070BC7047DB0518188018002951
:10050000F8DA401C4900F5D170BC40084000704743
:10051000F0B507460846584087B0C00F0490480021
:100520000E46590040084908BC1A884105D2384691
:1005300031461E4617460B460246580040081043F7
:100540004CD0300D039040055900400D490D0590E9
:10055000401A0290402872DA18030121000B0905A5
:100560000843019004980092002805D00199524256
:100570000020884100920190029840210A1A0199B6
:10058000009800F0A3F905460C466B4607CB00F037
:10059000BEF9C0197141039A0E0D0023D7175640BA
:1005A0001A467A40164344D0049A002A2DD0029A63
:1005B000012A039A15DC1205C01A9141012636055D
:1005C000001C7141D20F059ED20700930192029642
:1005D0002A46234600F0BBF907B0F0BD3846314645
:1005E000FAE71605224A0F46B218C01AB741012190
:1005F0000905001C4F4100187F4111461818794128
:10060000E20F10436D19644113E0E2076D081543D2
:100610006408C2071443039A01261205C01A9141C7
:100620003605001C7141CE07400830434908C01808
:1006300051412A46234600F07DF9CDE7FFE70498B3
:1006400001224000C117121A00238B410498314641
:10065000C417381AA141EEE730B40124E40763401F
:1006600030BC55E730B40124E407614030BC4FE7AB
:100670000000E0FFF0B51FB488B00B990998002482
:1006800048400999C00F490049080991C0070B99D2
:100690000090490049080B9109990898A64608431B
:1006A0001CD00B990A98084318D0099801244000DF
:1006B000420D4800410D099824050003000B20431A
:1006C00009900B980003000B20430B9050181C4915
:1006D0004018002201901446104605E00020014613
:1006E0000DB0F0BD032801DA034600E003239C4669
:1006F000C11A0AAE0AE05F0008ADED5B4F00F75B80
:100700007D430027AA187C41491C5B1E6145F2DD30
:10071000410004AB5A522104120C0A43240C401C21
:100720000828DFDB01980290009970460191009043
:10073000059B049A0799069800F009F9D0E7000094
:100740000DFCFFFFF0B50C465C4085B0E40FE407FC
:1007500003944C0000266408590094464908024658
:100760000296224321D062460A431ED06200570DF2
:100770004A000E032303550D012402462C4924058B
:10078000781B1B0B360B4018234326436146009011
:100790001C46501AB44103D30098401C009002E05C
:1007A000921800985B41002803DA0020014605B04A
:1007B000F0BD0020012109050746864611E0644688
:1007C0001D46141BB54106D36546521BB341744602
:1007D00007430C43A646CD07400849082843921812
:1007E0005B4105460D43EAD11046184313D06046DD
:1007F000194650407140084306D06046101AB34174
:1008000006D20122002306E000220123DB0702E0DA
:100810000122D2435310009874460105381C6141EF
:10082000029C039D0019694100F084F8BFE70000B5
:10083000FD0300004A0009030123090B1B051943AE
:100840000A4B10B5520D9A4202DA0020014610BD43
:10085000064B34339A4203DC9A1A00F047F810BD75
:10086000034BD21800F032F810BD0000FF03000067
:10087000CDFBFFFF10B5002904DB0124E407404253
:100880008C412146002B04DB1C460123DB0752422E
:10089000A341994200D1904210BD00001CB5094807
:1008A00000900948019005460126009C05E0E36898
:1008B00007CC33430C3C98471034AC42F7D3FFF7D6
:1008C00055FC0000482C0000682C000010B5202AC0
:1008D00004DB0146203A9140002010BD91402023C6
:1008E0009C1A0346E3401943904010BD10B5202ADE
:1008F00004DB0846203AD040002110BD0B46D3400F
:10090000D0402024A21A91400843194610BD10B5CA
:10091000202A06DBCB170846203A1041C1170B43AB
:1009200006E00B461341D0402024A21A9140084310
:10093000194610BD10B5002B08DA0024401C614197
:1009400092185B411A4301D14008400010BDF0B538
:100950001FB482B005460C0003D0084601F03EFBF0
:1009600002E001F03BFB2030024600902146284681
:10097000FFF7ACFF049B059A04460F46184311434A
:10098000084314D0184610431BD0009840210A1A7F
:1009900018460599FFF7AAFF05460E46009A0599E5
:1009A0000498FFF793FF084305D0012004E0204698
:1009B000394607B0F0BD0020C11705430E432C4354
:1009C000374300990E986305401A7905E40A00221E
:1009D0000C43FD0A0A3002D500200146E9E7010573
:1009E000101969410C9C0D9D00196941FFF7A2FF88
:1009F000DFE7000080B586B005A9C320087004A910
:100A00008320087003A80022027002A802707048B8
:100A1000482100F063FDFFE76D486E4900F02AFCB5
:100A2000002801D1FFE7F7E7FFE769486A4900F0CE
:100A300021FC002801D1FFE7F7E76548012100F01C
:100A400044FDFFE71D204104614800F013FC00282D
:100A500001D1FFE7F6E705A801785D4800F035FD14
:100A6000FFE71D2041045A4800F004FC002801D192
:100A7000FFE7F6E704A80178554800F026FDFFE7F8
:100A80001D204104524800F0F5FB002801D1FFE78A
:100A9000F6E74F4800F066FCFFE74D480C2100F0F8
:100AA000FDFC0003002801D5FFE7F6E70F2000F06A
:100AB0000BFA47484821002200F010FDFFE74448A8
:100AC000444900F0D7FB002801D1FFE7F7E7FFE733
:100AD0003F48414900F0CEFB002801D1FFE7F7E78E
:100AE0003B48002100F0F1FCFFE71D20410438489D
:100AF00000F0C0FB002801D1FFE7F6E7344800F022
:100B000031FCFFE732480C2100F0C8FC000300284C
:100B100001D5FFE7F6E7012082022D48482100F0C9
:100B2000DDFCFFE72A482B4900F0A4FB002801D197
:100B3000FFE7F7E7FFE72648284900F09BFB00287E
:100B400001D1FFE7F7E72248012100F07DFBFFE735
:100B5000192001041E4800F08DFB002801D1FFE799
:100B6000F6E71B48019000F0A9FC0146019803AA92
:100B70001170002100F068FBFFE719200104144800
:100B800000F078FB002801D1FFE7F6E7104800905D
:100B900000F094FC0146009802AA117000F0E2FBFC
:100BA000FFE70B480C2100F079FC0003002801D579
:100BB000FFE7F6E70398000202A90978401800B29F
:100BC000FFF7C3FB0649FFF737FB06B080BDC04601
:100BD000009004400100180004003A0004001800CE
:100BE0006F12033988B00790069105A80270079824
:100BF000C000274940180490002003900290019003
:100C00000090FFE70098082840DCFFE700200290F2
:100C1000019006980099C840000600282ED0FFE7F2
:100C200000200390FFE7039807281ED8FFE70698E7
:100C30000399C8400099C840C007002810D0FFE7BA
:100C4000039880000F21814002980843029005A874
:100C50000178039880008140019808430190FFE7E4
:100C6000FFE70398401C0390DDE7049800680299B1
:100C700088430199084304990860FFE70498001D20
:100C80000490FFE7009808300090BBE708B0704779
:100C90002020024080B586B00590294800680721D1
:100CA0000840039000F050F8059908600398401E32
:100CB0000290062828D80298810001A04058874653
:100CC000DD0C0000E50C0000ED0C0000090D00003B
:100CD000090D0000F50C0000FF0C000005990868E4
:100CE000486015E005994048486011E005993E4884
:100CF00048600DE005990120C003486008E00599AF
:100D00007D200002486003E0059900204860FFE76D
:100D10000C48006804900498052805D3FFE705985F
:100D200040684009019005E0059840680499C84072
:100D30000190FFE701980599886006B080BDC04624
:100D4000348008402080084088B024480068012191
:100D50000A021040000A039021480068C00F029068
:100D60002048006849020840400A01900198002884
:100D700003D1FFE7002007902DE01B4804901B489B
:100D80000068C000C00F009004980099C84004900B
:100D90000298012803D1FFE7049807901BE013484D
:100DA00000681F21C9050840C00D0590059800285E
:100DB00003D1FFE710200590FFE70C4800680321EE
:100DC00049050840400D0690049905984843069946
:100DD000C8400790FFE7079808B0704700800840B8
:100DE0001C8008400480084000127A0018800840E7
:100DF00080B586B0014605A80170002101910599D2
:100E0000C9081C221140104A8918009100782E2828
:100E100003D1FFE702200190FFE705A801781F2218
:100E20001140017000990968007803228240114046
:100E3000C14001984018019002A8FFF72BFF0498C9
:100E40000199C84006B080BD3880084010B587B011
:100E500006920591049003A803701849096802914D
:100E6000174909680191174909680091049A029984
:100E700091430291059A019991430191069A009933
:100E800091430091007800280DD0FFE70499029863
:100E9000084302900599019808430190069900982B
:100EA00008430090FFE7029804490860019804494C
:100EB000086000980349086007B010BD248008400E
:100EC0002C8008403080084082B00190FFE70198F4
:100ED000411E019100280ED0FFE700200090FFE79F
:100EE00000980649884205D8FFE7FFE70098401CB4
:100EF0000090F5E7EBE702B07047C046DF2E000038
:100F000010B594B01390129111A8027010A800218E
:100F1000017001200F901398FFF709FA00280DD1F6
:100F2000FFE7129910AB1A78501C18702D208854C6
:100F300013980121C90748401390FFE70EA900202C
:100F40000870FFE70EA8007811A9097888420ADA2C
:100F5000FFE70F990A2048430F90FFE70E98401CC7
:100F60000EA90870EEE71398FFF71AFA0C90139881
:100F700002900C98FFF7F4F901460298FFF754F934
:100F800003900F98FFF7ECF901460398FFF754F927
:100F90003F210906FFF7F7F8FFF702FA0D9007A9BE
:100FA000002008700C98002808D1FFE707A90A78EC
:100FB000501C087008A9302088541BE00C9805903C
:100FC000FFE70598002814D0FFE705980A21019152
:100FD000FFF70EFA084601993022104307AC237838
:100FE0005A1C227008AAD0540598FFF701FA059000
:100FF000E7E7FFE7079806A90870FFE706A800786B
:10100000012812DBFFE706A8007808A94018401E57
:101010000078129910AC2278531C23708854FFE793
:101020000698401E06A90870E8E711A80078012874
:101030004DDBFFE7129910AB1A78501C18702E2068
:10104000885407A9002008700D9904910EA9087012
:10105000FFE70EA8007811A9097888421BDAFFE79C
:1010600004980A210091FFF7C3F90846009930223D
:10107000104311AA13780EAA1278D243D31808AAE3
:10108000D0540498FFF7B4F90490FFE70E98401C81
:101090000EA90870DDE70EA900200870FFE70EA872
:1010A000007811A90978884210DAFFE70EA80178C4
:1010B00008A8405C129910AC2278531C2370885405
:1010C000FFE70E98401C0EA90870E8E7FFE71299A9
:1010D00010A802780020885414B010BD83B002908C
:1010E00001A80180684602700078002807D0FFE759
:1010F00001A80288029908681043086006E001A868
:1011000002880299086890430860FFE703B07047BF
:1011100087B0009101460098069105A9088004A8AF
:101120000270069A92680392069AD26802920B881D
:10113000039A9A4303920A88029991430291007894
:101140000190002808D0FFE7019801280AD0FFE7A6
:10115000019802280CD00CE005A8018803980843E8
:10116000039007E005A8018802980843029001E077
:1011700000E0FFE703980699886002980699C86026
:1011800007B0704783B0029001A8018068460270E2
:101190000078002805D0FFE701A80088029948627E
:1011A00004E001A8008802998862FFE703B0704755
:1011B00080B588B0024607A8027006910078010148
:1011C0001B48401805900020009004900390029066
:1011D00002A94879022210434871487940221043FD
:1011E0004871049A0399029801230193FFF72EFE98
:1011F000059A1079D188127AFFF7F4FC059A907A53
:101200009189927BFFF7EEFC05980068069900F043
:10121000FDFC0099019A0598006800F061FD019AB3
:1012200005980068114600F05BFD08B080BDC0461F
:10123000CC2B0000FFE703480068002801D1FFE73E
:10124000F9E770470800002082B0019068460170FD
:101250000078002806D0FFE70199086801221043B2
:10126000086005E001990868012290430860FFE7E3
:1012700002B0704783B0019000910198C068009956
:10128000884204D1FFE702A90120087003E002A907
:1012900000200870FFE702A8007803B0704782B012
:1012A0000190684601700078002806D0FFE7019998
:1012B000086808221043086005E0019908680822C0
:1012C00090430860FFE702B07047000080B58EB021
:1012D000002005900D900C900B900C98022100912D
:1012E00008430BA908718878042210438870487954
:1012F0004022104348710D9A0C990B9801230693D4
:10130000FFF7A4FD00982021049107220192FFF726
:1013100069FC0098019A10210291FFF763FC029981
:10132000059A0E480390FFF7F3FE03980499059A77
:10133000FFF7EEFE059808A90870487088700A2229
:101340000A81074A0992C8705348079000F014F8C0
:1013500006990798FFF7A3FF0EB080BD00400B4031
:10136000A086010081B00090009908680222104315
:10137000086001B07047000080B58CB00A900991F8
:101380000020089007900690059004A908700A981C
:1013900000688521884309990A7810434A781043E8
:1013A000897808430A990860099800890A99886031
:1013B0000A983849884204D1FFE704A90020087040
:1013C00009E00A983449884204D1FFE704A90220C1
:1013D0000870FFE7FFE704A80078FFF709FD089011
:1013E0000A980068032189030840039000280CD064
:1013F000FFE7039801218903884209D0FFE703989A
:101400000121C903884206D008E00620079005E0C4
:101410000820079002E009200790FFE708990920BB
:101420004843099900914A68142101915143FEF7FC
:10143000DFFF009A0199079BC01AD278801A0690A4
:10144000089A0B205043099A029252685143FEF7C2
:10145000CFFF0299079A801AC978401A059006981A
:10146000002804D4FFE70598002804D5FFE70BA95E
:101470000020087009E006980A99086105980A9901
:1014800048610BA901200870FFE70BA800780CB099
:1014900080BDC046008004400090044083B00290AC
:1014A00001A8017000210091029900910178009833
:1014B000401800900098006803B0704781B0009019
:1014C00000988069C0B201B0704782B00190684650
:1014D000017000780199886102B0704783B0029072
:1014E00001A801800092FFE70298006880070028A9
:1014F00001D5FFE7F8E70098002808D0FFE701A82A
:1015000000880121890208430299C86104E001A80A
:1015100000880299C861FFE703B07047704780B543
:10152000002000F09FF880BD80B584B0014603A87C
:10153000017000780021019100F00EF9019802A9D4
:101540000870FFE702A800787F2809DCFFE7002089
:1015500000F032F9FFE70298401C02A90870F1E799
:1015600004B080BD80B584B003AB187002A80170D0
:1015700001A802700078202805DBFFE701A80078A9
:101580007F2804DBFFE701A920200870FFE703A8FC
:10159000007802A9097800F0DFF869460020087099
:1015A000FFE768460078072813DCFFE701A800780A
:1015B000C00009494018694609784018FF21C9430D
:1015C000405C00F0F9F8FFE70098401C694608709D
:1015D000E7E704B080BDC046D428000080B584B0E1
:1015E000014603A8017000780021019100F0B4F8D1
:1015F000019802A90870FFE702A800787F2809DC9B
:10160000FFE7FF2000F0D8F8FFE70298401C02A98E
:101610000870F1E704B080BD80B584B003AB1870EA
:1016200002A801700192FFE701980078002817D006
:10163000FFE702A800780830812801DBFFE70FE010
:1016400003A8007802A900910978019A531C01931C
:101650001278FFF787FF0099029808300870E3E7D7
:1016600004B080BD80B584B003A90870212000F0CB
:1016700091F80020019000F08DF87F2000F08AF8AA
:10168000222000F087F8019800F084F8072000F08D
:1016900081F8019802A90880FFE702A8008808499C
:1016A00088420ADCFFE703A8007800F085F8FFE72E
:1016B0000298401C02A90880EFE704B080BDC04634
:1016C000FF03000080B586B00122039291030291CE
:1016D000CB480190FFF756FD0398FFF7F5FB019803
:1016E000029900220592FFF74DFD0398FFF7ECFBEE
:1016F00001980299039AFFF745FD0A20FFF7E4FBE2
:10170000AE2000F047F8202000F044F8059800F0E3
:1017100041F8812000F03EF87F20049000F03AF874
:10172000A62000F037F8AF2000F034F8212000F0B8
:1017300031F8059800F02EF8049800F02BF82220DC
:1017400000F028F8059800F025F8072000F022F8AE
:10175000FFF7E5FE06B080BD80B584B003AA019214
:10176000107002A800900170212000F013F800987A
:10177000007800F00FF87F2000F00CF8222000F035
:1017800009F80198007800F005F8072000F002F849
:1017900004B080BD80B582B001A90091087001201D
:1017A000C10397480022FFF7EDFC0098007800F095
:1017B00029F902B080BDC04680B582B001A9009170
:1017C00008700122D1038E48FFF7DCFC00980078F6
:1017D00000F018F902B080BD704780B584B0E120F8
:1017E0004002009001200002694688800020C880E5
:1017F00008810390FFF7DCFC04B080BD81B000904D
:101800006846007806490860FFE706480068C0059A
:10181000002801D4FFE7F8E7009801B07047C04600
:10182000000004401000044082B00190684601703E
:101830000078002806D0FFE70199086801221043CC
:10184000086005E001990868012290430860FFE7FD
:1018500002B0704784B00390029101A90020087083
:10186000009003984069009000980299084204D0C3
:10187000FFE701A90120087003E001A9002008701A
:10188000FFE701A8007804B0704783B0029001918F
:101890000198406900900098002809D1FFE701985D
:1018A000806901210902814000980843009008E006
:1018B0000198806901214902C140009808430090C5
:1018C000FFE7019908688A681043CA6810430A69EB
:1018D0001043C96908430099084302994860019977
:1018E00048684A6A1043096A0901084302998861F5
:1018F0000198806A4008401E0299C86003B0704792
:1019000080B598B0002007900C900B900A900B982F
:10191000202108430AA908718878012309931843F4
:1019200088708878042210438870487940221043D8
:1019300048710C9A0B990A98FFF788FA0998C10226
:101940000220019005220292FFF74CF90198029AB9
:1019500009990902FFF746F90198029A0999490283
:101960000391FFF73FF90198029A09998902FFF75D
:1019700039F90399079A2148FFF7CAFB0798099A92
:10198000D1030491FFF72EF90798099A9103069164
:10199000FFF728F90499099A19480590FFF79EFB6B
:1019A00005980699099AFFF799FB04990598099AF1
:1019B000FFF7E8FB05980699099AFFF7E3FB0698FD
:1019C0000799099A0D900E9108200F9052031092DA
:1019D0001191129113911491159116911790194824
:1019E00008900DA9FFF751FF0898099900F033F806
:1019F00008980999FFF718FF18B080BD00400B4008
:101A000000000B4080B582B001A90870FFE70D48C7
:101A10000121FFF71FFF002801D1FFE7F7E701A829
:101A20000178084800F02DF8FFE706480421FFF789
:101A300011FF002801D1FFE7F7E7024800F004F8A2
:101A400002B080BD0040044081B000900098006961
:101A500080B201B0704782B0019068460170007892
:101A6000002806D0FFE701990868082210430860A3
:101A700005E001990868082290430860FFE702B07A
:101A8000704782B001906846018000880199086122
:101A900002B0704770477047B0B5514910200860D8
:101AA00050490868402210430860FFE74E4800682C
:101AB000272801D0FFE7F9E74C4908680322920282
:101AC000904308604A4908680122D2021043086026
:101AD000FFE7484800680007C00F002801D1FFE772
:101AE000F7E7434908680322104304229043086043
:101AF000FFE74148006807210840032801D0FFE7BD
:101B0000F7E73E490868012210430623984308601E
:101B10003B4900200860364908685402A043086029
:101B2000384B186815022843186008680825A84330
:101B30000860186820431860086892021043086023
:101B4000FFE72C4800684007C00F002801D1FFE7DD
:101B5000F7E7244908684022904308600F20C00539
:101B600029490860086801221307184308602549BD
:101B700008681302984308601D4908685202104320
:101B80000860FFE71B4800688007C00F002801D1EC
:101B9000FFE7F7E71949086803221043042290433E
:101BA00008601749002008601149086801221043A5
:101BB000062290430860FFE70F48006807210840AD
:101BC000012801D0FFE7F7E70C490868102210430D
:101BD000086008680122120310430860B0BDC046C7
:101BE0000C8108403080084008A10640248008404D
:101BF0000480084008800840348008400002084003
:101C000020800840008008401880084080B586B0D9
:101C10000590049100200390059802900598406873
:101C2000294908400499CA8810438A8810430A89C0
:101C30001043C96808430599486002980190012142
:101C40008907884219D0FFE70198204988421ED0B1
:101C5000FFE701981E49884223D0FFE701981D49FC
:101C600088420FD0FFE701981B49884214D0FFE754
:101C700001981A49884219D01DE01820FFF7B8F8DA
:101C8000039018E01A20FFF7B3F8039013E01C202C
:101C9000FFF7AEF803900EE01E20FFF7A9F80390BF
:101CA00009E00820FFF7A4F8039004E00A20FFF7FA
:101CB0009FF80390FFE7039804990968FEF798FBE3
:101CC0000599486206B080BDFCE0FFFF00100040AF
:101CD00000200040000004400010044000200440A8
:101CE00083B002900191684602700078002808D005
:101CF000FFE701981022824002994868104348602B
:101D000007E0019810228240029948689043486099
:101D1000FFE703B0704780B582B001900091019851
:101D2000FFF76CFD02B080BDB0B5A2B000201090EE
:101D300021901890FFF751FD994800F03FF9FFF707
:101D4000DFFDFFF7BFFCFFF7C1FA1099954A08467F
:101D5000FFF762FC0120FFF741FC1099924A022034
:101D6000FFF75AFC0420FFF739FC10998F4A052031
:101D7000FFF752FC10998E4A0620FFF74DFCFFE753
:101D8000FEF738FE179017988A49FEF792FAFEF789
:101D9000EEFA16A90F910880189809901798FEF787
:101DA00013FB02460F980B46099900240E94005F1E
:101DB0000090814800F002F903200B90FFF7B4FB7C
:101DC000179819A90A910422FFF79AF80A98FEF7C2
:101DD000D3F90A9A0E9904460B9815AB1C701D781E
:101DE00020240D9454551C78A51856246C701B782B
:101DF0009B1899700821FFF70FFC05200C90FFF746
:101E000093FB0C980E99694AFFF706FC0D9A0E9900
:101E10000F9814AB1A70405E002809D5FFE714A98B
:101E20002D200870002116A8405E4042139004E067
:101E3000002116A8405E1390FFE712A90391282005
:101E400008900870149819A9069108700020049051
:101E5000887113980A210591FEF7CAFA069A084676
:101E6000059930240294204350711398FEF7C0FA6C
:101E7000059913901398FEF7BBFA069A0846059940
:101E8000204310711398FEF7B3FA05991390139835
:101E9000FEF7AEFA069A084605992043D0701398CB
:101EA000FEF7A6FA059913901398FEF7A1FA069A81
:101EB00008460599204390701398FEF799FA059902
:101EC00013901398FEF794FA069A039821435170E1
:101ED00001780520FFF7A0FB06200790FFF724FB01
:101EE00004990798324AFFF797FB04980599069AD8
:101EF000189B119390711198FEF77AFA069A08468A
:101F00000599204350711198FEF772FA05991190C6
:101F10001198FEF76DFA069A08460599204310714C
:101F20001198FEF765FA059911901198FEF760FA7D
:101F3000069A084605992043D0701198FEF758FA82
:101F4000059911901198FEF753FA069A08460599DB
:101F5000204390701198FEF74BFA05991190119853
:101F6000FEF746FA069A08460599204350701198E4
:101F7000FEF73EFA059911901198FEF739FA069A84
:101F800007980B46089923431370FFF745FB1898F1
:101F9000401C18907D208000FEF796FFF0E6C046BA
:101FA000FA2B0000382C0000222C0000332C0000FB
:101FB0002E2C00006F120339DC2B00000FB410B57B
:101FC00003A9044B044A029800F0E8F810BC08BCCE
:101FD00004B01847171D0000000000202021020C4B
:101FE00001D010211046020A01D01046083902091A
:101FF00001D01046091F820801D01046891E4208F0
:1020000001D0881E7047081A704702E008C8121FE6
:1020100008C1002AFAD170477047002001E001C1D1
:10202000121F002AFBD17047F0B51FB486B0099883
:10203000089A030D0021024314D05148514A181840
:10204000504305141198012810981AD0281A401CE2
:1020500000264D4F4D49009601910490002812DA58
:10206000444211E01198012449A3012801D110989C
:10207000C1430698119A84600360C26041600BB04E
:10208000F0BD4042E4E70446210500203F4A001C21
:1020900051410391029012E0E00707D032463B46DF
:1020A00001990098FEF7E6FA0191009032463B460E
:1020B00010461946FEF7DEFA06460F466410002C5D
:1020C000EAD10498039B0028029A0999089806DA35
:1020D000FEF7D0FA019B009AFEF7CCFA05E0FEF776
:1020E00031FB019B009AFEF72DFB04460E460022B1
:1020F000284BFEF7BFFB03D80020C043014607E092
:102100000022254B20463146FEF702FAFEF792FBED
:10211000102409E0002C0ADB0A220023FEF787F9CD
:10212000079B30321A55641E02460A43F2D111222F
:10213000641C079B121B1C19119B012B03D001234C
:1021400008430ED10AE0084304D01120109000206B
:10215000119077E71098151A6D1E0BE010988242C7
:1021600002DD00236D1C03E0824201DA00236D1EB4
:10217000002BEED0069811998260C16030C07EE7D6
:1021800001FCFFFF104D0000000014400000F03F74
:10219000300000000000F0430000E03FFFB597B0C2
:1021A0000646002518E2252877D100242746FD4958
:1021B000049400E00443761C32780120203A9040D9
:1021C0000842F7D130782A280ED002223078014612
:1021D0003039092916D804990A235943303940184F
:1021E0001443761C0490F1E7189802C804911890E3
:1021F000002904DA012040030443484204900220ED
:102200000443761C30782E2814D1042004437078BF
:10221000761C2A2809D11898761C80C8189009E0E5
:102220000A214F43303FC719761C307801463039B8
:102230000929F5D930786C2810D006DC4C281AD042
:1022400068280ED06A2817D104E0742813D07A28A1
:1022500012D110E00120400504430CE001210905E2
:1022600001E0032109050C437178814203D101206B
:1022700000052418761C761C3078119066280BD047
:1022800013DC58287DD009DC00287BD04528F6D007
:102290004628F4D047281AD1A5E118E0632835D0A4
:1022A000642870D0652812D19DE170286CD008DCBC
:1022B0006728F1D069287BD06E280DD06F2806D111
:1022C000BAE073282ED0752871D0782859D01A9A80
:1022D000199990476D1C7EE16002400F022809D0D9
:1022E00003280DD00428189801680DD00D60001D3A
:1022F000189070E11898EA1701680D604A60F6E7D7
:10230000189801680D80F2E70D70F0E718986A469A
:1023100001781172001D18900020507202A80090E0
:10232000012005E0189802C8189000200091C043D1
:1023300061070DD5002101E00199491C0191B942C5
:1023400012DA8142F8DB009A515C0029F4D10BE0EB
:10235000002101E00199491C01918142FADB019AB7
:102360000099895C0029F5D1019904981A9B471AB4
:1023700021463846199A00F097FA019940194518F4
:102380000BE04FE02CE113E04EE00098009900785C
:10239000491C00911A9A199990470198401E019082
:1023A000401CF2D1214638461A9B199A10E137E0B9
:1023B0000A200021009001916002410F022907D0FC
:1023C000189A01CA1892C2179446032908D00AE045
:1023D0001898C01DC108C90005C91891944607E0A6
:1023E00000B2C2179446042902D140B2C1178C46EC
:1023F00000226146944506DA0A4600214042914196
:102400008C462D2102E0210504D52B216A4611734B
:10241000012103E0E10701D02021F7E7029155E017
:102420000A200AE0102008E010200090002104207B
:1024300004430191082703E0082000210191009046
:102440006002410F022907D0189A01CA189200228F
:102450009446032908D008E01898C01DC108C90097
:1024600005C91891944603E080B2042900D1C0B296
:1024700000210291210729D51199702906D0009ACF
:102480001021019B4A401A4305D00EE040216A46C4
:102490001173012108E06146014306D030216A46EC
:1024A00011731199517302210291009A0821019B25
:1024B0004A401A430AD16146014301D1610705D55B
:1024C00030216A46117301217F1E0291119958290A
:1024D00004D035A10E910DA90D910DE037A1F9E7BA
:1024E0006146019B009AFDF7A2FF0E9B8C469B5C08
:1024F0000D9A521E0D92137061460143F0D10D9852
:1025000005A9081A20300190600703D501200004B6
:10251000844300E001270198874201DD381A00E07A
:102520000020019900904118029809180498401A57
:102530000490E00306D421461A9B199A049800F0EF
:10254000B3F94519002706E003A81A9AC05D199946
:1025500090476D1C7F1C02988742F5DBE0030CD589
:1025600021461A9B199A049800F09EF9451904E037
:102570001A9A3020199990476D1C0099481E0090B6
:102580000029F5DC08E00D980D990078491C0D91A3
:102590001A9A199990476D1C0199481E01900029BB
:1025A000F1DC63E10928010030313233343536374C
:1025B000383961626364656600000000303132338F
:1025C000343536373839414243444546000000002F
:1025D00000F05AF94519761C3078002800D0E2E561
:1025E00028461BB0F0BD600700D406271898C01D10
:1025F000C108C90048680A680831C30FDB07189191
:10260000190001D09CA108E0210501D59BA104E09F
:10261000E10701D09AA100E09AA1430011985B085C
:10262000109165280CD006DC452809D046281DD01D
:10263000472841D141E0662818D067283CD13CE0CA
:102640000021112F01DB112000E0781C0191009086
:1026500008A911A8FFF7E8FC139905910021119A28
:1026600015927F1C12980197009150E00120C0073D
:1026700003900120019008A9009711A8FFF7D4FC4E
:10268000139A149905920022119B009212981593A7
:10269000059A0192002901D0104602E0791C4018E9
:1026A0000190381A01D5019804E04042401E009084
:1026B000781C0190C01B029043E0012F00DA012733
:1026C0000021112F01DD112000E03846019100901A
:1026D00008A911A8FFF7A8FC13990591119A0021E8
:1026E000129815920091019721070CD40599B942CF
:1026F00001DB019900E00191012904DD159A491ED1
:10270000515C302906D0B84201DA011D05DA0121F9
:10271000029115E00199491EEDE7002805DC0099BA
:10272000411800910199091A03E0019A411C914254
:1027300000DD01910099401A401C02900120C00761
:102740000390200706D402990198814202DB002001
:10275000C043029000206946C87707AF0121039863
:102760000337C907884224D0022011902B201290F1
:10277000039800280CDA404203902D20129007E0C5
:102780000A210398FDF734FE30317F1E0390397023
:102790001199481E11900029F2DC03980028EFD10E
:1027A000791E129808703078202108404530BF1EED
:1027B000387006A8C01BC01D039010980078002830
:1027C00000D00120019941180298C01709180398F8
:1027D00009180498401A401E0490E00306D42146CC
:1027E0001A9B199A049800F05FF845191098007820
:1027F000002803D01A9A199990476D1CE00324D53C
:1028000021461A9B199A049800F04EF845191CE0CD
:102810000098002807DB00990598884203DD159889
:10282000405C199901E0199930201A9A9047009854
:102830006D1C401C00900298401E0290002804D19C
:102840001A9A2E20199990476D1C0199481E0190E3
:102850000029DDDC05E038781A9A7F1C1999904729
:102860006D1C0399481E03900029F4DC21461A9B35
:10287000199A0498ACE600002D0000002B0000001F
:102880002000000000000000F8B5044600251E46A8
:102890001746880404D405E039462020B0476D1C53
:1028A000641EF9D52846F8BDFFB50446002581B061
:1028B0001E46C80301D5302700E02027880404D530
:1028C00005E038460399B0476D1C641EF9D52846CB
:1028D00005B0F0BD000000000000000000005F0037
:1028E000000000000007000700000000147F147FB4
:1028F00014000000242A7F2A120000002313086419
:102900006200000036495522500000000005030017
:1029100000000000001C2241000000000041221CB9
:1029200000000000082A1C2A0800000008083E08D1
:1029300008000000005030000000000008080808EF
:102940000800000000606000000000002010080483
:10295000020000003E5149453E00000000427F4019
:102960000000000042615149460000002141454BF2
:10297000310000001814127F100000002745454563
:10298000390000003C4A4949300000000171090546
:10299000030000003649494936000000064949292C
:1029A0001E00000000363600000000000056360011
:1029B0000000000000081422410000001414141448
:1029C0001400000041221408000000000201510917
:1029D00006000000324979413E0000007E111111CD
:1029E0007E0000007F494949360000003E414141D8
:1029F000220000007F4141221C0000007F4949491C
:102A0000410000007F090901010000003E414151E1
:102A1000320000007F0808087F00000000417F416D
:102A2000000000002040413F010000007F08142208
:102A3000410000007F404040400000007F0204024F
:102A40007F0000007F0408107F0000003E414141EC
:102A50003E0000007F090909060000003E415121A7
:102A60005E0000007F0919294600000046494949D7
:102A70003100000001017F01010000003F404040A3
:102A80003F0000001F2040201F0000007F20182072
:102A90007F0000006314081463000000030478043E
:102AA00003000000615149454300000000007F41E0
:102AB00041000000020408102000000041417F0096
:102AC00000000000040201020400000040404040F9
:102AD0004000000000010204000000002054545493
:102AE000780000007F4844443800000038444444E3
:102AF00020000000384444487F00000038545454FB
:102B000018000000087E0901020000000814545457
:102B10003C0000007F0804047800000000447D4071
:102B2000000000002040443D00000000007F10280D
:102B30004400000000417F40000000007C041804B5
:102B4000780000007C080404780000003844444405
:102B5000380000007C141414080000000814141835
:102B60007C0000007C080404080000004854545411
:102B700020000000043F4440200000003C40402072
:102B80007C0000001C2040201C0000003C40304025
:102B90003C00000044281028440000000C50505015
:102BA0003C0000004464544C4400000000083641DE
:102BB0000000000000007F00000000000041360817
:102BC0000000000008040810080000000000044095
:102BD0000000100006000000200006005B256C7558
:102BE0005D204130203D20252E34662056202028AF
:102BF0007261773D2564290D0A000D0A2A2A2A20D0
:102C0000485433322041445331313135202B205345
:102C1000534431333039204F4C4544202A2A2A0D61
:102C20000A00414453313131352041303A00436E7E
:102C3000743A005261773A003D3D3D20452D4E4F9C
:102C40005345203D3D3D3D00682C00000000002024
:102C5000040000000A2000006C2C00000800002086
:0C2C6000080200001A2000000000000024
:04000005000000C136
:00000001FF
