:020000040000FA
:1000000008020020C1000000F5040000E103000028
:10001000FFFFFFFFFFFFFFFFFFFFFFFFFFFFFFFFF0
:10002000FFFFFFFFFFFFFFFFFFFFFFFFE5070000F0
:10003000FFFFFFFFFFFFFFFF79060000E70700005B
:1000400035010000350100003501000035010000D8
:1000500035010000350100003501000035010000C8
:1000600035010000350100003501000035010000B8
:1000700035010000350100003501000035010000A8
:100080003501000035010000350100003501000098
:100090003501000035010000350100003501000088
:1000A0003501000035010000350100003501000078
:1000B0003501000035010000350100003501000068
:1000C0001D4880471D4880471D4800471D4801695D
:1000D000002908D14169002905D18169002902D18F
:1000E000C169002909D01848C1680901090D002912
:1000F0000ED005290CD006290AD0BFF34F8F134824
:100100001349016013491248C860BFF34F8FFEE7DF
:100110000E4801680E48884200D070470E480F49CB
:1001200001600A480E4901607047FEE7FEE7FEE7FE
:10013000FEE7FEE7FEE70000CD000000E907000053
:100140006501000000030840800108400000002015
:100150000400FA0500ED00E0008108400100000005
:10016000000000000348854600F006F800480047FC
:100170005D090000080200201CB5094800900948EC
:10018000019005460126009C05E0E36807CC334357
:100190000C3C98471034AC42F7D3FFF7E7FF000060
:1001A0003C0A00004C0A000088B00790069105A8A0
:1001B00002700798C000274940180490002003905F
:1001C000029001900090FFE70098082840DCFFE7CC
:1001D00000200290019006980099C840000600286F
:1001E0002ED0FFE700200390FFE7039807281ED8D2
:1001F000FFE706980399C8400099C840C007002847
:1002000010D0FFE7039880000F2181400298084337
:10021000029005A801780398800081400198084366
:100220000190FFE7FFE70398401C0390DDE7049887
:100230000068029988430199084304990860FFE720
:100240000498001D0490FFE7009808300090BBE779
:1002500008B070472020024010B587B00692059183
:10026000049003A8037018490968029117490968A6
:100270000191174909680091049A029991430291EA
:10028000059A019991430191069A00999143009131
:10029000007800280DD0FFE70499029808430290E7
:1002A0000599019808430190069900980843009029
:1002B000FFE7029804490860019804490860009823
:1002C0000349086007B010BD248008402C80084016
:1002D0003080084082B00190FFE70198411E0191F3
:1002E00000280ED0FFE700200090FFE700980649A5
:1002F000884205D8FFE7FFE70098401C0090F5E72B
:10030000EBE702B07047C046DF2E000083B00290DA
:1003100001A80180684602700078002807D0FFE736
:1003200001A80288029908681043086006E001A845
:1003300002880299086890430860FFE703B070479D
:1003400087B0009101460098069105A9088004A88D
:100350000270069A92680392069AD26802920B88FB
:10036000039A9A4303920A88029991430291007872
:100370000190002808D0FFE7019801280AD0FFE784
:10038000019802280CD00CE005A8018803980843C6
:10039000039007E005A8018802980843029001E055
:1003A00000E0FFE703980699886002980699C86004
:1003B00007B0704783B0029001A8018068460270C0
:1003C0000078002805D0FFE701A80088029948625C
:1003D00004E001A8008802998862FFE703B0704733
:1003E000FFE703480068002801D1FFE7F9E77047FD
:1003F0000000002080B598B0002007900C900B9072
:100400000A900B98202108430AA9087188780123D3
:1004100009931843887088780422104388704879BB
:100420004022104348710C9A0B990A98FFF714FF69
:100430000998C1020220019005220292FFF7B4FE42
:100440000198029A09990902FFF7AEFE0198029AF3
:10045000099949020391FFF7A7FE0198029A0999A9
:100460008902FFF7A1FE0399079A2148FFF768FF69
:100470000798099AD1030491FFF796FE0798099A05
:1004800091030691FFF790FE0499099A7948059027
:10049000FFF73CFF05980699099AFFF737FF049983
:1004A0000598099AFFF786FF05980699099AFFF7BC
:1004B00081FF06980799099A0D900E9108200F90D8
:1004C000520310921191129113911491159116915A
:1004D0001790B04808900DA900F000F90898099904
:1004E00000F061F90898099900F0C7F818B080BDCC
:1004F00000400B40704780B5002000F001F880BD3F
:1005000080B584B003A90870212000F091F8002084
:10051000019000F08DF87F2000F08AF8222000F092
:1005200087F8019800F084F8072000F081F801981E
:1005300002A90880FFE702A80088084988420ADC6F
:10054000FFE703A8007800F085F8FFE70298401C59
:1005500002A90880EFE704B080BDC046FF03000099
:1005600080B586B001220392910302914148019027
:10057000FFF720FF0398FFF7ADFE019802990022D4
:100580000592FFF717FF0398FFF7A4FE0198029961
:10059000039AFFF70FFF0398FFF79CFEAE2000F0D1
:1005A00047F8202000F044F8059800F041F8812039
:1005B00000F03EF87F20049000F03AF8A62000F00A
:1005C00037F8AF2000F034F8212000F031F805981A
:1005D00000F02EF8049800F02BF8222000F028F804
:1005E000059800F025F8072000F022F8FFF783FFB8
:1005F00006B080BD80B584B003AA0192107002A835
:1006000000900170212000F013F80098007800F0AD
:100610000FF87F2000F00CF8222000F009F8019874
:10062000007800F005F8072000F002F804B080BD63
:1006300080B582B001A9009108700120C1030D4866
:100640000022FFF7B7FE0098007800F083F802B0B0
:1006500080BDC04680B582B001A90091087001221A
:10066000D1030448FFF7A6FE0098007800F072F866
:1006700002B080BD00000B40704782B00190684618
:1006800001700078002806D0FFE701990868012270
:100690001043086005E00199086801229043086052
:1006A000FFE702B0704784B00390029101A90020D7
:1006B00008700090039840690090009802990842E1
:1006C00004D0FFE701A90120087003E001A9002080
:1006D0000870FFE701A8007804B0704783B002906B
:1006E00001910198406900900098002809D1FFE726
:1006F0000198806901210902814000980843009017
:1007000008E00198806901214902C140009808432E
:100710000090FFE7019908688A681043CA6810438F
:100720000A691043C969084300990843029948605F
:10073000019948684A6A1043096A09010843029905
:1007400088610198806A4008401E0299C86003B021
:100750007047000080B582B001A90870FFE70D481E
:100760000121FFF7A0FF002801D1FFE7F7E701A86B
:100770000178084800F02DF8FFE706480421FFF74C
:1007800092FF002801D1FFE7F7E7024800F004F8E4
:1007900002B080BD0040044081B000900098006924
:1007A00080B201B0704782B0019068460170007855
:1007B000002806D0FFE70199086808221043086066
:1007C00005E001990868082290430860FFE702B03D
:1007D000704782B0019068460180008801990861E5
:1007E00002B0704770477047B0B55149102008609B
:1007F00050490868402210430860FFE74E480068EF
:10080000272801D0FFE7F9E74C4908680322920244
:10081000904308604A4908680122D20210430860E8
:10082000FFE7484800680007C00F002801D1FFE734
:10083000F7E7434908680322104304229043086005
:10084000FFE74148006807210840032801D0FFE77F
:10085000F7E73E49086801221043062398430860E1
:100860003B4900200860364908685402A0430860EC
:10087000384B186815022843186008680825A843F3
:1008800008601868204318600868920210430860E6
:10089000FFE72C4800684007C00F002801D1FFE7A0
:1008A000F7E7244908684022904308600F20C005FC
:1008B0002949086008680122130718430860254980
:1008C00008681302984308601D49086852021043E3
:1008D0000860FFE71B4800688007C00F002801D1AF
:1008E000FFE7F7E719490868032210430422904301
:1008F0000860174900200860114908680122104368
:10090000062290430860FFE70F480068072108406F
:10091000012801D0FFE7F7E70C49086810221043CF
:10092000086008680122120310430860B0BDC04689
:100930000C8108403080084008A10640248008400F
:1009400004800840088008403480084000020840C5
:1009500020800840008008401880084080B588B09A
:1009600000200790FFF746FDFFF7FAFDFFE706A915
:1009700000200870FFE706A8007807281EDCFFE7C4
:1009800006A8007800210291FFF734FE029805A91D
:100990000870FFE705A800787F2809DCFFE7AA2098
:1009A000FFF758FEFFE70598401C05A90870F1E71E
:1009B000FFE70698401C06A90870DCE71648FFF719
:1009C00089FC04A900200870FFE704A80078072824
:1009D0001EDCFFE704A8007800210191FFF70AFE62
:1009E000019803A90870FFE703A800787F2809DCB5
:1009F000FFE75520FFF72EFEFFE70398401C03A9F1
:100A00000870F1E7FFE70498401C04A90870DCE7D0
:100A10000148FFF75FFCAAE7DC05000002E008C818
:100A2000121F08C1002AFAD170477047002001E068
:100A300001C1121F002AFBD1704700004C0A0000C0
:0C0A400000000020080200002C0A00004A
:04000005000000C136
:00000001FF
